:020000040800F2
:100000000050002021D4000861D4000861D4000809
:1000100061D4000861D4000861D400080000000029
:1000200000000000000000000000000061D4000893
:1000300061D400080000000061D4000861D4000809
:1000400061D4000861D4000861D4000861D40008BC
:1000500061D4000861D40008FD8100080182000815
:1000600005820008098200080D82000861D400089A
:1000700061D4000861D4000861D4000861D400088C
:1000800061D4000861D4000861D40008477B0008EF
:10009000437B000861D4000861D400081182000885
:1000A00061D4000861D4000861D4000861D400085C
:1000B00061D4000861D4000861D4000861D400084C
:1000C00061D4000861D4000861D4000861D400083C
:1000D00061D400080987000861D4000861D40008D1
:1000E0003D82000861D400084B7B0008000000003E
:1000F0000000000000000000000000000000000000
:0C01000000000000000000005FF808F1A3
:10011000EFF309800046704780F309887047EFF3DA
:1001200008800046704780F308887047EFF312801C
:10013000704780F311887047EFF31080704780F3A9
:1001400010887047EFF31380704780F3138870476F
:10015000EFF31480704780F31488704700BA70473B
:1001600040BA7047C0BA704790FAA0F07047D0E824
:100170004F0FC0B27047D0E85F0F80B2704750E8B1
:10018000000F7047C1E8430F18467047C1E8530F8E
:100190001846704741E800007047000040F0BF601B
:1001A000024B40F40030D860704700BF00ED00E023
:1001B00070B50125017801F01F039D40C3784C09FB
:1001C000C3B10F4BDA684378D243C2F30222C2F1C3
:1001D000040603FA06F683780F2020FA02F2134091
:1001E0003343084A1B01DBB2114481F8003342F863
:1001F000245070BD034B203443F82450F9E700BF6E
:1002000000ED00E000E100E021F0604121F07F011D
:10021000014B01439960704700ED00E0044B1A69FF
:1002200011B110431861704722EA0000FAE700BFDD
:1002300000ED00E0044B04281A680CBF42F00402F1
:1002400022F004021A60704710E000E0036823F017
:10025000010303600023036043608360C360294B94
:10026000984204D1284A536843F00F0326E0274BF5
:10027000984204D1244A536843F0F0031EE0244B13
:10028000984204D1204A536843F4706316E0214B2E
:10029000984204D11C4A536843F470430EE01E4B4D
:1002A000984204D1184A536843F4702306E01B4B6C
:1002B000984205D1144A536843F470035360704761
:1002C000174B984204D1104A536843F07063F5E726
:1002D000144B984201D1144AC5E7144B984201D1FE
:1002E000114AC8E7124B984201D10F4ACBE7114B94
:1002F000984201D10C4ACEE70F4B9842DFD10A4A0F
:10030000D1E700BF08000240000002401C0002408C
:100310003000024044000240580002406C0002409D
:100320008000024008040240000402401C04024015
:100330003004024044040240580402408B6810B567
:100340000C6A026823430C6922F4FF4223434C6980
:1003500022F0700223438C692343CC6923434C6A07
:1003600023438C6A234313430360CB6843600B68C9
:1003700083604B68C36010BD0023C0E90033C0E94F
:100380000233C0E90433C0E90633C0E908338362AD
:100390007047036819B143F001030360704723F00D
:1003A0000103FAE7036812B119430160704723EAB9
:1003B0000101FAE7406880B27047C3004CBF044BAC
:1003C000044B1B68034214BF01200020704700BF8C
:1003D0000004024000000240C3004CBF014B024B2E
:1003E000586070470004024000000240FFF7E5BF7C
:1003F000FFF7F2BF08B5264B984209D1012104202E
:1004000000F06CFA00210420BDE8084000F066BA54
:10041000204B984206D10121082000F05FFA00210C
:100420000820F1E71C4B984206D10121102000F072
:1004300055FA00211020E7E7184B984206D1012118
:10044000202000F04BFA00212020DDE7144B9842D9
:1004500006D10121402000F041FA00214020D3E7DD
:10046000104B984206D10121802000F037FA00217C
:100470008020C9E70C4B984208D101214FF48070CD
:1004800000F02CFA00214FF48070BDE708BD00BFDA
:1004900000080140000C0140001001400014014020
:1004A00000180140001C014000200140012108B556
:1004B000084600F013FABDE808400021012000F0D2
:1004C0000DBACA782DE9F041D30648BF8B780E8863
:1004D00002F00F0548BF1D4316F0FF0F1AD0002190
:1004E0004FF0010C4FF00F0E03680CFA01F737EADA
:1004F00006040BD18C000EFA04F823EA080305FA6F
:1005000004F4282A43EA040326D14761013108296B
:10051000EBD10360FF2E1DD908244FF0010C4FF0E2
:100520000F0E41680CFA04F737EA06030ED104F106
:100530008043083B9B000EFA03F821EA080105FA04
:1005400003F3282A41EA03010AD147610134102C40
:10055000E8D14160BDE8F081482A08BF0761D5E7CE
:10056000482A08BF0761F1E74FF6FF7303800223B3
:1005700083700423C37070478368194214BF01203D
:1005800000207047806880B27047C368194214BF6A
:10059000012000207047C06880B270470161704739
:1005A000416170470AB10161704741617047C160A4
:1005B000704741F48033836181618361836983691A
:1005C0007047054A136823F07F031B041B0C194373
:1005D00041EA00111160704700000140014B1860B2
:1005E000704700BF1C0020420028164A30B500F4B6
:1005F0004015B4BFD3695368B5F5401F84B210D11C
:10060000556823F0706325F07065556019B1420D8F
:100610001201944023430B4A0028B4BFD3615360B6
:1006200030BDC2024DBF0322420D1201C0F303458B
:100630004CBFAA4004FA02F223EA020343F07063BB
:10064000E4E700BF0000014010B50F2401F00303F0
:1006500001F0FC0101F1804101F580318A689B00C5
:100660009C4022EA04028A608A68984010438860AD
:1006700010BD014B18607047DC0020420D4B1A681A
:1006800042F001021A6059680B4A0A405A601A681F
:1006900022F0847222F480321A601A6822F48022D6
:1006A0001A605A6822F4FE025A604FF41F029A60E0
:1006B000704700BF001002400000FFF80C4BB0F57F
:1006C000803F1A6822F480321A601A6822F480226D
:1006D0001A6003D0B0F5802F05D070471A6842F435
:1006E00080321A6070471A6842F4A022F9E700BF0E
:1006F00000100240034A136823F0F80343EAC000E5
:100700001060704700100240014B1860704700BF36
:1007100000004242034A536823F47C131943014307
:100720005160704700100240014B1860704700BFD5
:1007300060004242034A536823F0030318435060A9
:10074000704700BF00100240024B586800F00C00D8
:10075000704700BF00100240034A536823F0F003C3
:1007600018435060704700BF00100240034A5368AE
:1007700023F4E06318435060704700BF001002404C
:10078000034A536823F4605343EAC0005060704743
:1007900000100240044B1A7811B1104318707047D2
:1007A00022EA0000FAE700BF09100240014B18607E
:1007B000704700BFD8004242034A536823F44043C5
:1007C00018435060704700BF001002400022064BE3
:1007D00001281A701A7002D0042802D070471870CD
:1007E000704705221A70704720100240014B1860B4
:1007F000704700BF80044242024A136A18431062E5
:10080000704700BF00100240014B1860704700BFE6
:100810003C0442421B4A10B5536803F00C03082BFA
:100820001FD0194B036053681849C3F30313CC5C02
:100830000368E34043605468C4F302240C5D23FA68
:1008400004F484605468C4F3C2240C5DE340C360C4
:100850005268C2F3813211440A7CB3FBF2F30361A4
:1008600010BD53685168C3F38343CC0303F1020303
:1008700002D407494B43D5E751688903F9D40249AB
:10088000F8E700BF0010024000127A0000000020CC
:1008900000093D00044B5A6911B11043586170477B
:1008A00022EA0000FAE700BF00100240044B9A69F8
:1008B00011B110439861704722EA0000FAE700BFC7
:1008C00000100240044BDA6911B11043D86170473F
:1008D00022EA0000FAE700BF00100240044BDA6889
:1008E00011B11043D860704722EA0000FAE700BF58
:1008F00000100240044B1A6911B11043186170478F
:1009000022EA0000FAE700BF00100240014B186025
:10091000704700BF40044242014B1860704700BF5F
:100920004C004242014B1870704700BF0710024054
:100930004209012A074B07D11B6800F01F0023FA68
:1009400000F000F001007047022A0CBF1B6A5B6ACE
:10095000F3E700BF00100240002307B501933120E8
:10096000FFF7E6FF019B01330193019BB3F5A06FF5
:1009700001D00028F3D03120FFF7DAFF003018BF94
:10098000012003B05DF804FB024A536A43F0807310
:100990005362704700100240034B9B68184214BF1B
:1009A00001200020704700BF00100240014B18706A
:1009B000704700BF0A10024008B5154B98420BD192
:1009C00001214FF48050FFF789FFBDE80840002166
:1009D0004FF48050FFF782BF0E4B98420BD101219C
:1009E0004FF48040FFF786FF00214FF48040BDE8C0
:1009F0000840FFF77FBF084B984208D101214FF410
:100A00000040FFF777FF00214FF40040EFE708BDFB
:100A10000030014000380040003C0040038810B521
:100A200003F441524C880B8823438C882343CC88A1
:100A300023430C8923434C8923438C892343CC894A
:100A4000234313430380838B23F400631B041B0C99
:100A500083830B8A038210BD838BF0B523F47B6301
:100A600023F00F038383022303848B68868B022B7E
:100A700087B005460C46B6B239D08B8801A8002B4A
:100A800014BF02270127FFF7C5FEE3880199B3F5DC
:100A9000007F18BF7B014FF00A0214BFB1FBF3F3D4
:100AA0000B0A5343A0680A22B3FBF0F305339BB251
:100AB000B3FBF2F303F001021202C3F34F03991EDA
:100AC00089B2FE2924BF002202231343E288134384
:100AD0009BB262882B8423881343A28843F400636B
:100AE0001343A28913431E43AE8307B0F0BD002217
:100AF000E5E70023038043808380C3800381438133
:100B00008381C38107230382704700230222C0E947
:100B10000033826083817047038819B143F040033A
:100B20000380704723F040031B041B0CF8E7838B02
:100B300019B143F480638383704723F480631B04FB
:100B40001B0CF8E70B090121994089B2838812B187
:100B500019438180704723EA0101FAE7838812B1C3
:100B600019438180704723EA0101FAE781817047C8
:100B7000808970474FF6FF639942038805BF23F4CD
:100B800080731B0443F480731B0C038070478388BD
:100B900019B143F004038380704723F004031B045E
:100BA0001B0CF8E7038823F400631B041B0C038071
:100BB0000388194301807047038843F480530380FE
:100BC0007047038819B143F400530380704723F43E
:100BD00000531B041B0CF8E7012914BF008B808A0B
:100BE00080B27047008A70470388B1F5804F1BBF01
:100BF00023F480431B0443F480431B0C03807047A1
:100C00000389194214BF012000207047C94389B2EB
:100C1000018170470123828810B5048901F00F001B
:100C200003FA00F0204092B205D009098B401A4225
:100C300014BF0120002010BD01F00F0301219940D5
:100C4000C94389B20181704730B5048C42EA03136D
:100C500024F001042404240C0484048B058C24F067
:100C6000F3042404240C1C4325F002031B041B0C76
:100C700041F00101A4B20B430483038430BD30B5BD
:100C8000048C120224F010042404240C0484058B28
:100C9000048C42EA033324F0200225F44075120448
:100CA0002D05120C2D0D42EA01111D4341F01001DA
:100CB000ADB289B20583018430BD08B5614B98425D
:100CC0000BD101214FF40060FFF708FE00214FF423
:100CD0000060BDE80840FFF701BEB0F1804F09D1C8
:100CE00001210846FFF706FE00210120BDE808406B
:100CF000FFF700BE544B984206D101210220FFF7B6
:100D0000F9FD00210220F1E7504B984206D1012164
:100D10000420FFF7EFFD00210420E7E74C4B984249
:100D200006D101210820FFF7E5FD00210820DDE7BD
:100D3000484B984206D101211020FFF7DBFD00212E
:100D40001020D3E7444B984206D101212020FFF721
:100D5000D1FD00212020C9E7404B984208D1012154
:100D60004FF40050FFF7BAFD00214FF40050B0E7F8
:100D70003B4B984208D101214FF40020FFF7AEFD14
:100D800000214FF40020A4E7364B984208D10121FE
:100D90004FF48010FFF7A2FD00214FF4801098E778
:100DA000314B984208D101214FF40010FFF796FD16
:100DB00000214FF400108CE72C4B984206D1012102
:100DC0004020FFF797FD002140208FE7284B9842F5
:100DD00006D101218020FFF78DFD0021802085E7CD
:100DE000244B984208D101214FF48070FFF782FD17
:100DF00000214FF4807079E71F4B984208D1012100
:100E00004FF48030FFF76AFD00214FF4803060E737
:100E10001A4B984208D101214FF40030FFF75EFDD4
:100E200000214FF4003054E7154B984208D10121BE
:100E30004FF48020FFF752FD00214FF4802048E757
:100E400008BD00BF002C0140000400400008004025
:100E5000000C00400010004000140040003401402D
:100E6000004C014000500140005401400018004077
:100E7000001C0040002000400040014000440140B0
:100E800000480140224A038890429BB212D002F5EA
:100E9000006290420ED0B0F1804F0BD0A2F5983294
:100EA000904207D002F58062904203D002F5806242
:100EB000904203D14A8823F070031343154A9042AD
:100EC00008D002F5806290421FBF23F44073CA88A5
:100ED0009BB2134303808B8883850B8803850C4B5F
:100EE00098420FD003F5006398420BD003F540639E
:100EF000984207D003F58063984203D003F58063DE
:100F0000984201D10B7A038601238382704700BF88
:100F1000002C014000100040038C70B523F0010349
:100F20001B041B0C0384038C8488028B0D8822F025
:100F300073021204120C2A4323F002030D894E8817
:100F40001B0435431B0C2B43134DA4B2A8420FD0F6
:100F500005F50065A8420BD005F54065A84207D00D
:100F600005F58065A84203D005F58065A8420DD13E
:100F70004D8923F008032B438D8823F004032B4372
:100F8000CE898D8924F4407435432C4384800283B8
:100F9000CA888286038470BD002C0140038C70B522
:100FA00023F010031B041B0C0384038C8488028B26
:100FB0000D8822F4E6421204120C42EA052223F0C4
:100FC00020030D894E881B0435431B0C43EA05138F
:100FD000114DA4B2A84292B29BB203D005F50065B0
:100FE000A84213D14D8923F0800343EA05134FF63D
:100FF000BF751D408B88CE8945EA03138D8924F483
:101000004064354344EA85049BB2A4B284800283E1
:10101000CA880287038470BD002C0140038C70B520
:1010200023F480731B041B0C0384038C8288848B41
:101030000D8824F073042404240C2C4323F400733F
:101040000D894E881B0435431B0C43EA0523114DC3
:1010500092B2A8429BB203D005F50065A84213D115
:101060004D8923F4006343EA05234FF6FF351D4005
:101070008B88CE8945EA03238D8922F4405235437B
:1010800042EA05129BB292B28280CA888483828728
:10109000038470BD002C0140038C70B523F4805391
:1010A0001B041B0C0384038C8488828B0D8822F420
:1010B000E6421204120C42EA052223F400530D8981
:1010C0004E881B0435431B0C43EA05330B4DA4B279
:1010D000A84292B29BB203D005F50065A84205D1A3
:1010E0008D8924F4804444EA8514A4B284808283E8
:1010F000CA88A0F84020038470BD00BF002C0140C6
:101100004A880B8813438A881343CA8813430A8981
:1011100013434A8913438A891343A0F84430704724
:101120004FF6FF73838000230380C38043800372E4
:1011300070470023038043808380C3800381438101
:101140008381C38170470023012203804380828012
:10115000C380038170470023038043808380C38062
:101160000381438183817047038819B143F00103F0
:101170000380704723F001031B041B0CF8E7B0F851
:10118000443021B143F40043A0F844307047C3F326
:101190000E03F9E7838912B119438181704723EA6D
:1011A0000101FAE7818270470A43A0F8482070479E
:1011B000FFF7F0BF038923F007031B041B0C038117
:1011C0007047038923F070031B041B0C1943018132
:1011D000038943F007030381704738B50D46602D3E
:1011E000114604464FF001020DD1FFF748FD218959
:1011F00021F070010904090C29432181238943F05E
:101200000703238138BDFFF71FFDF0E710B5048900
:101210000A43E4B242EA03231C43A4B2048110BD92
:1012200010B5FFF7F3FF038923F077031B041B0CB2
:1012300043F07703038110BD10B5FFF7E7FF038983
:1012400043F48043038110BD018582827047038887
:1012500023F070031B041B0C1943018070470389A2
:1012600023F070031B041B0C19430181704770B5F8
:101270000589068B25F00705048C2D042D0C24F020
:1012800022042943240426F4407525F00305240C88
:1012900042EA031345F480751C4345F00105A4B2EE
:1012A00001810583048470BD038B23F070031B044C
:1012B0001B0C194301837047038B23F4E0431B0489
:1012C0001B0C43EA012189B201837047838B23F011
:1012D00070031B041B0C194381837047838B23F419
:1012E000E0431B041B0C43EA012189B28183704750
:1012F000038819B143F080030380704723F0800313
:101300001B041B0CF8E7838819B143F004038380A6
:10131000704723F004031B041B0CF8E7838819B102
:1013200043F008038380704723F008031B041B0C61
:10133000F8E7838819B143F001038380704723F0F5
:1013400001031B041B0CF8E7038B23F008031B04A9
:101350001B0C194301837047038B23F400631B04A8
:101360001B0C43EA012189B201837047838B23F070
:1013700008031B041B0C194381837047838B23F4E0
:1013800000631B041B0C43EA012189B2818370476F
:10139000038B23F004031B041B0C194301837047C8
:1013A000038B23F480631B041B0C43EA012189B2E5
:1013B00001837047838B23F004031B041B0C194328
:1013C00081837047838B23F480631B041B0C43EAE7
:1013D000012189B281837047038B23F080031B04B2
:1013E0001B0C194301837047038BC3F30E0343EABD
:1013F000012189B201837047838B23F080031B0492
:101400001B0C194381837047838BC3F30E0343EA9C
:10141000012189B281837047038C23F002031B04EE
:101420001B0C194301847047038C23F008031B0431
:101430001B0C194301847047038C23F020031B0409
:101440001B0C43EA011189B201847047038C23F01D
:1014500080031B041B0C43EA011189B2018470470D
:10146000038C23F400731B041B0C43EA012189B293
:1014700001847047038C23F400631B041B0C43EAB4
:10148000012189B201847047038C23F400531B04AB
:101490001B0C43EA013189B20184704710B5012465
:1014A000038C8C4023EA04030384038C02FA01F1C9
:1014B000194389B2018410BD10B50424038C8C40FB
:1014C00023EA04030384038C02FA01F1194389B26D
:1014D000018410BD30B50125048C8D4024EA05043B
:1014E00000F11803048421F0080040B94908C858E5
:1014F00020F07000C850C8580243CA5030BD0439AB
:10150000C1F34E01C858120220F4E040C850C85838
:1015100092B2F1E7038819B143F0020303807047E8
:1015200023F002031B041B0CF8E7038819B143F0F6
:1015300004030380704723F004031B041B0CF8E72B
:10154000838819B143F080038380704723F08003C0
:101550001B041B0CF8E7038823F008031B041B0C77
:1015600003800388194301807047838823F0700348
:101570001B041B0C83808388194381807047038977
:1015800023F007031B041B0C03810389194301810A
:101590007047038923F080031B041B0C038103891C
:1015A0001943018170478184704781857047818626
:1015B00070470187704781877047A0F840107047D7
:1015C000038B23F00C031B041B0C0383038B1943B5
:1015D00001837047038B23F440631B041B0C0383BC
:1015E000038B43EA012189B201837047F8B50C46A9
:1015F0004988A2880029B4F800C014BF002602263A
:10160000012A14BF012702272389BCF1000F0ED144
:10161000FFF71AFBE188FFF7D3FF314623893A46EB
:10162000FFF72DFBE188BDE8F840FFF7D3BFFFF7D8
:1016300026FBE188FFF7CEFF314623893A46FFF7C4
:1016400003FBE188BDE8F840FFF7BABF838B23F0C6
:101650000C031B041B0C8383838B1943818370470A
:10166000838B23F440631B041B0C8383838B43EA2B
:10167000012189B281837047F8B50D460F88AA8889
:1016800049882B8937B9FFF7DFFAE988BDE8F840C8
:10169000FFF796BF042F06D1FFF7F1FAE988BDE8FE
:1016A000F840FFF797BF082FEE88058C1CD125F472
:1016B00080752D042D0C0584878B058CBFB227F017
:1016C000F307ADB23A4342EA031225F4007343F440
:1016D000807343EA01239BB292B282833146038432
:1016E000BDE8F840FFF7B2BF25F480552D042D0C5E
:1016F0000584878B058C1B03ADB227F4407743EA42
:1017000002223F0525F400533F0D43F480533A4332
:1017100043EA01339BB292B2828331460384BDE82F
:10172000F840FFF79DBF038823F440731B041B0C94
:1017300003800388194301807047808E7047008FB3
:101740007047808F7047B0F840007047808C7047BA
:10175000008D7047038A194214BF01200020704792
:10176000C94389B201827047038A828911EA030062
:1017700092B203D00A4214BF012000207047C9432F
:1017800089B20182704700BF01F10051013201F5B9
:1017900040515210490002B9704730F8023B013AFB
:1017A00021F8043BF7E7002310B501F100510132A5
:1017B00001F54051521049009A4200D110BD51F834
:1017C000234020F813400133F6E70000014B186076
:1017D000704700BF405C0040014B186880B2704702
:1017E000405C0040014B1860704700BF445C004003
:1017F000014B186880B27047445C0040014B186888
:1018000080B27047485C0040014B1860704700BFD1
:101810004C5C0040014B186880B270474C5C004043
:101820004FF6F873014A034013607047505C004064
:10183000014B186880B27047505C0040800000F196
:10184000804000F5B84001607047800000F18040A2
:1018500000F5B840006880B27047800000F1804019
:1018600000F5B840036823F4EC4323F070031943F8
:1018700089B201607047800000F1804000F5B840F7
:10188000006800F4C0607047800000F1804000F5FF
:10189000B8400368CA0623F4E04323F040039BB238
:1018A00048BF83F010038A0648BF83F0200343F447
:1018B000004343F0800303607047800000F18040E4
:1018C00000F5B8400368CA0423F4804323F0700392
:1018D0009BB248BF83F480538A0448BF83F400530B
:1018E00043F4004343F0800303607047800000F13D
:1018F000804000F5B8400129036805D123F48053E6
:101900001B041B0C036070470229FCD123F0100359
:10191000F6E7800000F1804000F5B840006800F074
:1019200030007047800000F1804000F5B84000684A
:1019300000F440507047800000F1804000F5B8404E
:10194000036823F4E04323F040039BB283F03003A9
:1019500043F4004343F0800303607047800000F1CC
:10196000804000F5B840036823F4804323F07003FF
:101970009BB283F4405343F4004343F0800303607D
:10198000704740F60F63800000F1804000F5B840DA
:101990000268134043F4014343F08003036070473F
:1019A000800000F1804000F5B840036823F4F8732C
:1019B0001B051B0D43F4004343F080030360704795
:1019C000FFF7EEBFFFF7DDBFFFF7DBBFFFF7E8BFB5
:1019D000800000F1804000F5B840006800F0300061
:1019E000A0F11003584258417047800000F1804038
:1019F00000F5B840006800F44050A0F5805358420C
:101A000058417047800000F1804000F5B8400368FD
:101A100023F0F0031B051B0D43F0800303607047A8
:101A2000800000F1804000F5B840036823F0F00327
:101A30001B051B0D43F4004303607047800000F159
:101A4000804000F5B840036823F0F0031B051B0D30
:101A500043F4404343F0800303607047800000F18B
:101A6000804000F5B840036823F0F0031B051B0D10
:101A700043F4004343F0C00303607047800000F16B
:101A8000804000F5B84003685B0409D5036823F083
:101A9000F0031B051B0D43F4404343F08003036038
:101AA0007047800000F1804000F5B84003685B0695
:101AB00009D5036823F0F0031B051B0D43F4004315
:101AC00043F0C00303607047800000F1804000F5E0
:101AD000B840036841F4004123F0F0031B051B0DDF
:101AE00041F080010B4303607047800000F18040AB
:101AF00000F5B840006800F00F007047064B490839
:101B00001B6849009BB203EBC00000F1005000F5D8
:101B10004050400001607047505C0040054B490850
:101B20001B6849009BB203EBC000034B03445B00FE
:101B300019607047505C004004300020054B1B6862
:101B40009BB203EBC00000F1005000F54050400094
:101B500000887047505C0040044B1B689BB203EB4D
:101B6000C000034B03445B0018887047505C004082
:101B700004300020044B1B689BB203EBC000034BF6
:101B800003445B0019607047505C00400230002045
:101B90003E290AD94B09C90604BF03F1FF339BB2A2
:101BA0009B0243F40043036070474B08CA0748BFD9
:101BB00001339B02F7E70E4B0E4A1B683E299BB28E
:101BC00003EBC00002444FEA42020AD94B09C8069F
:101BD00004BF03F1FF339BB29B0243F40043136045
:101BE00070474B08C90748BF01339B02F7E700BFA6
:101BF000505C004006300020054B1B689BB203EB95
:101C0000C000044B03445B001868C0F30900704730
:101C1000505C004002300020054B1B689BB203EB78
:101C2000C000044B03445B001868C0F30900704710
:101C3000505C00400630002010B50B4CC0002368FB
:101C400049089BB2034403F1005303F540535B0082
:101C500049001960236852089BB21844034B520094
:101C600003445B001A6010BD505C0040043000204B
:101C7000FFF744BFFFF752BFFFF760BFFFF76CBF2E
:101C8000012910B52BD1254CC0002168244B89B205
:101C900001440B443E2A4FEA430119D9530912F07B
:101CA0001F0F04BF03F1FF339BB29B0243F40043B9
:101CB0000B6023681B499BB2184401443E2A4FEA3B
:101CC00041011FD85308D20748BF01339B0222E0CD
:101CD000530812F0010F18BF01339B02E8E70229F5
:101CE0000FD10E4CC00021680D4B89B201440B444A
:101CF0005B001A6023689BB218440A4B03445B00E4
:101D00001A6010BD5309D00604BF03F1FF339BB224
:101D10009B0243F400430B60F3E700BF505C0040BC
:101D2000023000200630002001291BD1134B14493A
:101D30001B683E2A9BB203EBC00001444FEA4101FD
:101D40000AD95309D00604BF03F1FF339BB29B02AB
:101D500043F400430B6070475308D20748BF013378
:101D60009B02F7E7022908D1044B1B689BB203EBE7
:101D7000C000034B03445B001A607047505C004096
:101D80000230002001291BD1134B14491B683E2A45
:101D90009BB203EBC00001444FEA41010AD9530949
:101DA000D00604BF03F1FF339BB29B0243F4004310
:101DB0000B6070475308D20748BF01339B02F7E717
:101DC000022908D1044B1B689BB203EBC000034BF4
:101DD00003445B001A607047505C004006300020EE
:101DE000FFF70ABFFFF718BF0D49C0000B689BB291
:101DF000C2180C4B13445B001B6813F47C4F0DD1CD
:101E00000B689BB21844084B03445B001B68C3F388
:101E10000903002B14BF02200020704701207047E7
:101E2000505C0040063000200230002001290FD114
:101E3000800000F1804000F5B840036823F0F00313
:101E40001B051B0D43F4004343F0C00303607047C0
:101E50000229FCD1800000F1804000F5B840036801
:101E600023F0F0031B051B0D43F4404343F08003B4
:101E7000ECE741EA00207047C3B2000A40EA0320C1
:101E8000704700BF8279154B83F830200268DA6210
:101E9000002283F831200279012A0CD0022A0ED0C8
:101EA0004279012A0DD0022A13D008220B4883F868
:101EB000302007F01DBB602283F83120F0E740227C
:101EC000FAE793F8312042F0030283F83120092227
:101ED000ECE793F8312042F00202F6E7C803002055
:101EE0002DE9F0434FF4A0608FB000240126FEF7E7
:101EF00055F92523584D6846ADF800308DF803603C
:101F00008DF80240FEF754F92F6F2046B84730464F
:101F1000B8470220B8474FF40042D5F888901146E0
:101F20002046C8472046B847D5F8788032460F216A
:101F30002046C047202230461146C8473046B847A1
:101F4000324605213046C047224620213046C84748
:101F50004FF4804220461146C8472046B8473246D3
:101F60000E212046C0473D4BD3F848329847D5F85C
:101F7000343120469847D5F83C312246384920462E
:101F80009847FF22D5F8403108212046984708217C
:101F9000D5F8483120469847324B334800F11402B7
:101FA000586004389A6007F065FA6B69202106A82A
:101FB000984706462D4B01AA03F1100C14461868E9
:101FC0005968083303C463452246F7D1182E3046BA
:101FD0004FF0000228BF18201B782370244C904239
:101FE00002F1010321D80220B847D5F884404FF40C
:101FF00000510220A04701220D210220C0474FF4CA
:1020000000510220A0471B4B64201B68D3F84C32C0
:102010009847D5F880304FF4005102209847164871
:1020200008F08AF90FB0BDE8F08306AA1A4412F846
:10203000012C0DF1380C02F00F0161440CEB12126F
:1020400012F8342C11F8341C04EB830606F8021C39
:1020500004F823201A46C2E770D8000808D6000802
:102060004054890014000020CC03002090DD0008BB
:1020700058000020C40300208C00002008B506484A
:1020800007F052FA054B0020D3F8E0309847BDE83E
:102090000840034807F0E9BDC803002008D600083F
:1020A0008C0000202DE9F0410E462421436890F871
:1020B0004E20054601FB0232931993F91130002B93
:1020C0004BDB0C21D26801FB03235B68002B44D05F
:1020D000234C9B782268002ABFBF01226260002245
:1020E000A260026913B1D36F304698472B6930461E
:1020F000D3F89C3098470746A1682B69DFF86480C5
:10210000D3F8A03002464144304698472B69304608
:10211000D3F8A430984717B90020BDE8F081A36830
:1021200023B998F800300F2B0CD82760A3681F4400
:10213000A7602368A2689A4222BF236843F0004345
:102140002360E9E7203B5F2B9FBF98F8013098F8A8
:10215000022003EB02232360E8E76FF00500DCE7D1
:10216000800C0020901C00202DE9F0414A6891F875
:102170004E300E46242101FB0323DA680C231F4C4A
:1021800003FB00202368002B32DA00221C4BD0F81E
:102190000480D3F888704FF480411046B847216816
:1021A000184889B20AF0CEFAE36823B3E36843F033
:1021B0000043E3600025A560E368AB4213DA98F8BA
:1021C0000110104A06EB41135A66E2689D6792B20D
:1021D0009A66E2683046C2F3004283F8722007F044
:1021E000B8FE2560E5604FF4804200201146B847F4
:1021F0000020BDE8F0812360DCE700BF800C0020F8
:1022000070D80008901C002038B54A6891F84E300C
:102210000C46242101FB0323DA680C2303FB002076
:102220004568104808F010FC0F4A2978204607F04E
:1022300013FD38B9AB7843B923692878D3F8A430B3
:10224000984708B16FF0050038BD236968785B6C6A
:1022500098470028F6D1236928785B6F98470028B3
:10226000EAD0EFE790140020A520000803461A7872
:10227000591C0AB9181A70470B46F8E7013801399A
:1022800010F8012F11F8013F12B10BB19A42F7D0AB
:10229000D01A70470B7810B543B1024611F8013BD4
:1022A000144602F8013B002BF8D1637010BD10B545
:1022B0000B7863B1034601390244934205D011F80B
:1022C000014F03F8014B002CF7D100221A7010BD0A
:1022D000C9B202780346013022B9002918BF002391
:1022E000184670478A42F4D1FAE70B7830B583B1CB
:1022F00003461846027801330AB9104630BD4C1E19
:1023000014F8012F002AF9D010F8015B9542F7D09C
:10231000EFE71846F2E7034610B51A785C1C3AB9A5
:10232000013B11F8012B03F8012F002AF9D110BD50
:102330002346F2E730B5044623461D780134002DCC
:10234000FAD1013B0A44914205D011F8014B03F840
:10235000014F002CF7D130BD10B50446FFF786FFC2
:1023600001300AF047FA2146BDE81040FFF792BF5E
:1023700010B5431E0A44914200D110BD11F8014B23
:1023800003F8014FF7E7013A10B501384C1E11442C
:102390000B1B002B01DC002006E010F8013F14F8B5
:1023A000012F9342F4D0981A10BD034610B5024491
:1023B000D41A002C00DC10BD03F8011BF8E7000064
:1023C000044B0246196809B90349196018680244A8
:1023D0001A607047903C0020044000204FF0FF300E
:1023E0007047002070474FF4005300204B60704747
:1023F000012070470020704700207047104670474A
:10240000014BD3F80C33184770D80008024BC0F3C7
:102410000E00D3F81033184770D80008024BC0F3F1
:102420000E00D3F81433184770D80008014BD3F8C6
:10243000F832184770D80008014BD3F8FC3218471F
:1024400070D80008014BD3F80033184770D8000843
:10245000014BD3F80433184770D80008014BD3F868
:102460000833184770D800080020704700207047D4
:1024700000207047002300F0805213432DE90048EC
:102480006DD1002300F0806213436AD1002300F075
:102490000072134367D1002300F08072134364D1AC
:1024A000002300F40002134361D1002300F48002F2
:1024B00013435ED1002300F4001213435BD10023C9
:1024C00000F40022134358D1002300F48012134378
:1024D00055D1002300F00062134352D1002300F4D1
:1024E000802213434FD1002300F4003213434CD118
:1024F000002300F48032134349D1002300F480729A
:10250000134346D1002300F08002134343D100233C
:1025100000F04002134340D1002300F02002134397
:102520003DD1002300F0100213433AD1002300F004
:102530000802134337D1002300F00402134334D1BF
:10254000002300F00202134331D1002100F001000A
:1025500050EA0103174808BF0020BDE8008816486C
:10256000FBE71648F9E71648F7E71648F5E7164877
:10257000F3E71648F1E71648EFE71648EDE7164887
:10258000EBE71648E9E71648E7E71648E5E7164897
:10259000E3E71648E1E71648DFE71648DDE71648A7
:1025A000DBE71648D9E71648D7E71648D5E71648B7
:1025B000D3E700BF1ADE0008A1DD0008A5DD000892
:1025C000A9DD0008ACDD0008B1DD0008B5DD0008BC
:1025D000BDDD0008C9DD0008D4DD0008D7DD000836
:1025E000E0DD0008E8DD0008F0DD0008F5DD0008AA
:1025F000FBDD0008FFDD000803DE000809DE00083F
:102600000DDE000812DE000816DE0008072970B58E
:1026100002F00F034FF00F0411D805688E00B4408C
:1026200025EA0404B34023430360940606D501233E
:1026300003FA01F1D3064CBF0161416170BDA1F104
:1026400008054668AD00AC4026EA0404AB402343CD
:102650004360EAE708B1024B03600020704700BF07
:1026600008D60008002814BF4FF0FF300020704744
:10267000FFF7F8BF2DE9F843089D0C4616461F46A4
:10268000002840F0E18022F4577323F003030B424B
:1026900040F0DD8021EA020323F46B7323F003038F
:1026A000002B40F0D480E10717D5F20707F00103B3
:1026B00040F19B8005F00109DFF89881002B00F0C4
:1026C000848007220B214046FFF7A0FF4FF40063F0
:1026D000B9F1000F76D0C8F81030A0070FD5B107B8
:1026E00040F18B804FF480625A4B15F0020F14BFFB
:1026F0001A615A6103220A215648FFF787FFA00595
:102700000ED5B10540F182804022524B15F4007F76
:1027100014BF1A615A61032206214E48FFF776FF63
:10272000E0050DD5F1057AD510224A4B15F4807FCE
:1027300014BF1A615A61042103224648FFF766FF5D
:1027400062070ED573076DD54FF40072414B15F03B
:10275000040F14BF1A615A61032209213D48FFF793
:1027600055FF22070ED5330765D54FF48062394BEC
:1027700015F0080F14BF1A615A6103220A21354867
:10278000FFF744FFE10604D503220E213248FFF78C
:102790003DFF620604D503220F212F48FFF736FFC5
:1027A000A30604D504220D212A48FFF72FFF14F0B9
:1027B000800005D0284804220821FFF727FF0020C9
:1027C000BDE8F883C8F8143087E74FF40063B9F127
:1027D000000F07D0C8F8103003220B211D48FFF767
:1027E00015FF7AE7C8F81430F6E723B1EB074CBFC2
:1027F00038222822F1E70422EFE7BA0704D5AB0715
:102800004CBF3822282276E7042274E7BA0504D5A3
:10281000AB054CBF382228227EE704227CE7042245
:1028200011468AE7780704D569074CBF3822282269
:1028300093E7042291E73E0704D528074CBF3822CE
:1028400028229BE7042299E74FF0FF30B8E76FF0AA
:102850000600B5E7000C014000080140002830D117
:10286000CB0742BF4FF40062174B5A61880742BF43
:102870004FF48062144B5A618A0542BF4022124BCA
:102880005A61CB0542BF10220F4B5A61480742BF25
:102890004FF400720C4B5A610A0742BF4FF480623A
:1028A000094B5A61CB0642BF4FF48042074B5A6135
:1028B00011F0400007D04FF40042044B00205A6151
:1028C00070474FF0FF307047000C01400008014096
:1028D000002830D1CB0742BF4FF40062174B1A617A
:1028E000880742BF4FF48062144B1A618A0542BFC9
:1028F0004022124B1A61CB0542BF10220F4B1A61C6
:10290000480742BF4FF400720C4B1A610A0742BFDE
:102910004FF48062094B1A61CB0642BF4FF48042EC
:10292000074B1A6111F0400007D04FF40042044BEE
:1029300000201A6170474FF0FF307047000C0140D3
:1029400000080140002856D121F47F7323F00303CF
:10295000002B53D1CB0707D54FF40060294B12F061
:10296000010F14BF18615861880707D54FF48060C4
:10297000244B12F0020F14BF186158618B0506D565
:102980004020204B12F4007F14BF18615861C80525
:1029900006D510201B4B12F4807F14BF18615861BC
:1029A0004B0707D54FF40070164B12F0040F14BFFD
:1029B00018615861080707D54FF48060114B12F079
:1029C000080F14BF18615861CB0607D54FF480403B
:1029D0000D4B12F0100F14BF1861586111F0400038
:1029E0000ED012F040004FF40042074B1ABF0020F7
:1029F0001A615A6170474FF0FF3070476FF0060060
:102A0000704700BF000C014000080140002848D179
:102A100021F46B7323F00303002B45D111F0010364
:102A20001EBF234B9B68C3F3C023880705D52048EE
:102A30008068400548BF43F00203880505D51C485F
:102A40008068400648BF43F40073C80505D51848A0
:102A50008068400648BF43F48073480705D5144892
:102A60008068800548BF43F00403080705D5104877
:102A70008068400548BF43F00803880605D50C4828
:102A80008068800448BF43F02003080605D5094943
:102A90008968C90548BF43F0800302B11360002074
:102AA00070474FF0FF3070476FF00600704700BF6F
:102AB000000C01400008014082B020B9044BDB6DDE
:102AC000019302B018474FF0FF3002B0704700BFCB
:102AD00070D8000882B020B9044B1B6E019302B07D
:102AE00018474FF0FF3002B0704700BF70D80008A1
:102AF00082B020B9044B5B6E019302B018474FF0CF
:102B0000FF3002B0704700BF70D8000882B020B913
:102B1000044B9B6E019302B018474FF0FF3002B098
:102B2000704700BF70D8000882B020B9044BDB6E3C
:102B3000019302B018474FF0FF3002B0704700BF5A
:102B400070D8000810B9034806F094BC4FF0FF306D
:102B5000704700BFC803002010B9034806F0AEBCA0
:102B60004FF0FF30704700BFC803002038B9054858
:102B700080F83020C16280F8313006F0B9BC4FF0E7
:102B8000FF307047C803002007B548B959B1CDE9F7
:102B900000120648694606F0C4FC03B05DF804FB69
:102BA0004FF0FF30F9E76FF00800F6E7C8030020A8
:102BB00007B548B959B1CDE900120648694606F093
:102BC000ADFC03B05DF804FB4FF0FF30F9E76FF0A8
:102BD0000800F6E7C803002038B50D46044690B952
:102BE000A1B10C4807F04AFE28600A4807F03DFEF4
:102BF0006860094807F042FEA860074807F035FE04
:102C0000E860204638BD4FF0FF30FBE76FF008006A
:102C1000F8E700BFCC030020E003002010B9034810
:102C200006F082BC4FF0FF30704700BFC8030020A1
:102C3000014BD3F85032184708D60008094A0378E8
:102C400012784AB103F080015B0003704FF4004238
:102C5000054B29B11A61704703F001015B08F4E7E5
:102C60005A617047943C0020000801400A4B996863
:102C70000A4B89041A78037809D522B15B0043F026
:102C80000103037070475B0863F07F03F9E70AB143
:102C90005B00F6E75B08F4E7000C0140943C002081
:102CA000F0B5244F002308253C4685B0224E8DF810
:102CB00007008DF80F307B78D80703D40DF107009B
:102CC000FFF7BCFF2079FFF7B3FF4FF48042637832
:102CD00013F0020F14BF72613261D90703D40DF1F2
:102CE0000F00FFF7C3FF2079FFF7A2FF6378DA0731
:102CF00003D50DF10700FFF7A1FF2079FFF798FF3B
:102D00004FF48042637813F0020F14BF3261726196
:102D1000DB0703D50DF10F00FFF7A8FF2079013D78
:102D2000FFF786FF15F0FF05C5D19DF80F0005B030
:102D3000F0BD00BF943C002000080140002814BFF3
:102D40004FF0FF300020704782B030B90120054BB2
:102D5000D3F8F830019302B018474FF0FF3002B0BB
:102D6000704700BF70D800082DE9F7432B4F054688
:102D70008946D7F8FC306946012016469847044634
:102D8000002844D14FF47A78019BB3FBF8F3002D6F
:102D900040D14B45224D2CD9012008FB09F8D7F82A
:102DA000F830287298471F4B4FF48042B3FBF8F37A
:102DB0006B60F343C3F3C0132B7006F003036B7017
:102DC000194B16F0020F14BF1A615A610E2103222B
:102DD0001548FFF71BFC03220F211348FFF716FCD1
:102DE00004220D211148FFF711FC204603B0BDE875
:102DF000F0832872D7F8F43001209847D7F80831CB
:102E000046F004024946012098470446EDE76FF07A
:102E10000504EAE74FF0FF34E7E700BF70D8000889
:102E2000943C002090D0030000080140000C0140B9
:102E300082B030B90120054BD3F80C31019302B0B8
:102E400018474FF0FF3002B0704700BF70D800083D
:102E500082B030B90120054BD3F81031019302B094
:102E600018474FF0FF3002B0704700BF70D800081D
:102E7000F8B50D4614461E4670BB1948077A2FB3A5
:102E800089B962B11644A6420BD0FF20FFF708FFB4
:102E900004F8010BF7E7FF20FFF702FF0134B4420B
:102EA000F9D10020F8BD0E446AB1541EB542F8D0E5
:102EB00015F8010BFFF7F4FE04F8010FF6E715F81B
:102EC000010BFFF7EDFEB542F9D1EAE7054C012011
:102ED000D4F82441A047E4E74FF0FF30E2E700BF19
:102EE000943C002070D80008F8B5064640F2E9345A
:102EF000074D084F013C03D0AB6816B1DA0502D587
:102F0000F8BDDB05FCD5D7F8503201209847F1E732
:102F10000008014008D6000810B5054B1A89D207F1
:102F2000FCD59A89034CA1819881104610BD00BF41
:102F300000380040003001402DE9F04F1C4689B0B8
:102F40009DF854309DF84C60BDF8487005933319D6
:102F5000934603F00702DB080092013317F00702E3
:102F6000824604919DF85080069365D001239340DA
:102F7000013BDBB2A94D02932978B9B1601808284A
:102F80006B785EDD0BFA01F11943C9B26A686970AA
:102F9000002090472B78C3F10802083B4BFA02FB54
:102FA0001C445FFA8BFBE4B200232B7000233A46EB
:102FB000A1461D4601930393F31913EB080348D16F
:102FC000C0210598954D41FA00F700F0070005284B
:102FD0006C68BFB200F22681394618460392A047BA
:102FE000039AC6B2BAF1000F1CD0DAB1019B069960
:102FF000591A89B2002900F02B81009B481E1AF84B
:103000000040C3F1080306FA03F32343009CDBB23C
:1030100094420AF8003080F01681029B264133402A
:103020000AF80130059BDC08013CE4B2FF2C40F0BB
:10303000168109B0BDE8F08F002F14BFFF230023D5
:1030400098E703FA04F141EA0B0B5FFA8BFBC4B279
:10305000AAE7C6B12146002C00F09680C4F108030F
:10306000B342D5BF6E486E4BC55C9D5D05FA09F550
:10307000EDB234440E44082EE4B200F38B80082CE9
:1030800000F0F280A14617B3072C00F2F180049BF8
:10309000ABB1039B002B00F08980DDE903130B44E7
:1030A00013F8015C1FFA89F1C9F10803B94245FA26
:1030B00003F373D3DDB2039B01339BB20393E31994
:1030C000082B78DCDCB2082C00F0D480A146B8F1E3
:1030D000000F00F08580072C00F28580002C6FD057
:1030E000C4F108014145D4BF4D484D496BB2D4BF2E
:1030F000455C11F8085005FA09F51D43EDB208EBDF
:103100000403082B64DC00263746B046DCB2F31912
:1031100013EB080F07D10123013C03FA04F444EA3E
:103120000B0B5FFA8BFB3D4B59465B6828460792B9
:103130009847079ABAF1000F22D0EAB1019B06998D
:103140008B4219D35C1A009BA4B2C0B2C3F1080E23
:10315000002C51D004F1FF3C1AF80C1000FA0EF3C9
:103160000B43BDF80010DBB291423FD2521A92B22B
:1031700091420AF80C303FD3019B01339BB201937B
:103180004FF0000B5C4617E7072E96BF244BFF2538
:103190009D5D6EE7083CE6B20824B8E7DDE903016F
:1031A0000D5C05FA09F51D43EDB284E7049B1B781D
:1031B00003FA09F3F7E7083F3C44A7B20026EBE720
:1031C000B8F1070F96BF164BFF2513F8085096E786
:1031D0000026A8F10808444404F0FF083746DBE75E
:1031E0004646474693E70026374690E7029A134043
:1031F0000AF80C300022BFE7009B724540FA03F04A
:10320000C0B205DD083B1A440AF8040092B2B3E7E5
:10321000029B18400AF80400ECE700BFA03C002025
:10322000FC0300200492059A0393C2F10800814038
:1032300089B21846A047039BC6B26C683946184647
:10324000A047049ACEE6029A13400AF80030E9E655
:10325000009B1E41029B33408AF80030E2E60021C9
:103260006B6808469847DFE64FF000094E4693E743
:1032700000264CE74FF000094E464F4647E710B591
:103280000C48FCF7E3FF0C48FCF7E0FF0B48FCF7A9
:10329000DDFF00210120FDF7FDFA4FF0FF32084B62
:1032A0000120DA60074BD3F8F840A0471020A04770
:1032B000002010BD4400024058000240300002408F
:1032C000FC03002070D800082DE9F043584F91B05E
:1032D00006468946D7F8FC4003A90120A04728B13B
:1032E0006FF00608404611B0BDE8F08301A9102038
:1032F000A04780460028F3D1049C019BA342EFD352
:10330000DDE902329342EBD89C4238BF1C464FF4B1
:103310007A73B4FBF3F4FFF7B2FFB44247D8D7F89F
:10332000F4500120A8471020A847424BB442DE6069
:10333000414D5AD887223146D7F808710120B84745
:103340004FF47A7301998322B1FBF3F11020B8474F
:10335000B9F1000F5FD001210846FDF79BFA002369
:10336000364A05A9CDE905238022CDE90A234FF489
:1033700040523348CDE90E23CDE907330993CDE917
:103380000C33FCF7DBFF2F4B05A9059310232E48C8
:103390000793FCF7D3FF01222C481146FDF7DEFB13
:1033A000012202212A48FDF7D9FB2A4B2EE04FF4D7
:1033B0008043294D03222B6128460E21FFF726F971
:1033C00004220D212548FFF721F9284603220F2169
:1033D000FFF71CF9032204212048FFF717F9042204
:1033E00008212846FFF712F99FE78EB90120FFF761
:1033F0007BFDB9F1000F08D17F22154B9A81A3F50F
:103400007843A3F80C90164B10E0164BAB6069E7BD
:10341000B9F1000FF9D17F220D4BB4429A814FF0E0
:103420000002A3F578439A81EDD80F4B6B6059E702
:1034300070D80008FC030020A03C00200C3800409D
:10344000440002400C30014030000240003800408F
:1034500000300140BD35000800080140000C01406B
:10346000B534000839350008192F00080E4B0F49F4
:10347000DA6882B012F4804FC8684FF480420CD0F2
:103480005A6170B14FF4FA7393FBF0F0084B80B2BD
:10349000D3F85032019302B018471A610028F1D1D5
:1034A000012002B020E500BF00080140FC0300201D
:1034B00008D600082DE9F84F002307460E460825D8
:1034C0004FF4004A194CDFF86890DFF86880B4F8D0
:1034D0000CB0A381A389FA074FEA5303A3814FF0ED
:1034E00010034CBFC9F810A0C9F814A016F0010FC2
:1034F00014BFC8F81030C8F81430FFF7B7FFFFF753
:10350000B5FFD8F80830013D9B0448BFA3894FEAB6
:10351000570744BF43F08003A38115F0FF054FEA2E
:103520005606D7D15846BDE8F88F00BFA03C002012
:1035300000080140000C01402DE9F74F8B46824600
:103540001F4600250121DFF86C90DFF86C8055459F
:1035500002D103B0BDE8F08F05F0070301FA03F4D0
:10356000EE08E4B203B9BB551BF8063001351C4226
:103570004FF4004314BFC9F81030C9F81430935DFC
:103580001C424FF0100314BFC8F81030C8F81430B4
:10359000CDE90021FFF76AFFFFF768FFDDE90021B1
:1035A000D8F8083013F4005F1EBFBB5D1C43BC5548
:1035B000CDE700BF00080140000C01402DE9F843B1
:1035C000C408A5B20E46174698462C46002D37D0A3
:1035D0004049414A4D60CB600B68DFF80CC143F0B5
:1035E00001030B605560D7601368013D43F0010390
:1035F000ADB213603544731EBCF808E01EF0020F34
:10360000FAD013F801EF9D42ACF80CE0F4D1334B43
:103610001D46D3F800C01CF4005FFAD04FF4005CE4
:10362000C3F804C02B689B05FCD54FF400736B6096
:103630000B6823F001030B60136823F00103136090
:1036400010F0070543D000212548FDF765FA4FF437
:103650008043DFF898900322C9F8103048460E21C5
:10366000FEF7D4FF04220D211E48FEF7CFFF484687
:1036700003220F21FEF7CAFF032204211948FEF797
:10368000C5FF08EB04033A1931192846FFF754FF28
:1036900001211348FDF740FA0B220E211148FEF7D5
:1036A000B5FF0B220D210F48FEF7B0FF0B220F21B3
:1036B0000C48FEF7ABFF0B2203210A48FEF7A6FFDA
:1036C0004846BDE8F8430B220D21FEF79FBFBDE839
:1036D000F88300BF44000240300002400000024076
:1036E00000300140000C014000380040000801405B
:1036F000002814BF4FF0FF300020704700B9BEE52E
:103700004FF0FF3070470B46014608B91846DBE51D
:103710004FF0FF30704730B548B94D784C888A88F3
:10372000044B0978C3E90642C3E9041530BD4FF0E4
:10373000FF30FBE7A03C002010B5144648B9FFF766
:10374000E2FF18B92146FFF7E6FF08B16FF0050068
:1037500010BD4FF0FF30FBE72DE9F0410D46D8B921
:10376000D4B2E608DFF838808F19BD420DD1C6EB20
:10377000461004EBC00010F0FF0004D0084B187096
:1037800000202A785A70BDE8F081D8F8043015F886
:10379000011B00209847E8E74FF0FF30F3E700BF38
:1037A000A03C002030B50C4689B00146A8B92022C3
:1037B0006846FEF7FAFD14B9204609B030BDB4F5ED
:1037C000807F8CBF4FF48075E5B22A4669460020A1
:1037D000FFF7C2FF20B9641BEDE74FF0FF30ECE7C5
:1037E0006FF00500E9E718B9034BC3E908217047FA
:1037F0004FF0FF30704700BFA03C00202DE9F04F94
:10380000D61D87B0F6100F4690469A469DF840B0F8
:103810001FFA86F900285AD12E4C042EC4F8A800AD
:103820001FDD0B68C4F8A8300021656AADF81610DA
:10383000EDB9BDF81630284DCDF80CA0002B08BF0F
:103840003D46237F03220293237E2946CDE9008350
:1038500028460423FFF770FBBBF1000F18D10020AE
:1038600013E0324604F1A800FEF782FDDCE70DF11B
:103870001603CDE901930097174BD4F8A82008460A
:10388000A8470028D5D06FF0050007B0BDE8F08F3D
:103890000021D4F82080ADF81610B8F1000F09D13E
:1038A000BDF81640002CDAD1324629463846FEF7DC
:1038B0005FFDD4E70DF11603CDE9019300953B467A
:1038C000D4F8A8200846C0470028E9D0DBE74FF02D
:1038D000FF30DAE7A03C0020C83C00202DE9F04F83
:1038E000D71D87B0FF100E4690469A469DF840B00F
:1038F0001FFA87F900284DD1284CADF81600656AEB
:10390000BDB9BDF81630264DCDF80CA0002B08BF70
:103910003546237D01220293237C2946CDE900838D
:1039200028460323FFF708FBBBF1000F13D100204B
:103930000EE00DF11603CDE90193009104F1280387
:10394000D4F8A8200121A8470028DAD06FF005009C
:1039500007B0BDE8F08F0020D4F82080ADF8160045
:10396000B8F1000F09D1BDF81640002CDFD13A465E
:1039700029463046FEF7FCFCD9E70DF11603CDE9E8
:10398000019300953346D4F8A8200121C0470028B0
:10399000E9D0DBE74FF0FF30DAE700BFA03C0020C2
:1039A000C83C0020FFF7A4BEFFF7A8BEFFF7ABBEE0
:1039B000F8B50E4670B90D46084F94B2AB1B9BB2DA
:1039C0009C4201D80020F8BD7B6815F8011B00203F
:1039D0009847F3E74FF0FF30F5E700BFA03C002029
:1039E00070B50C4658B9074E95B214F1FF3401D2A8
:1039F000002070BD7368294600209847F5E74FF016
:103A0000FF30F6E7A03C002007322DE9F0470E46D4
:103A1000D40800283ED100293FD00BB144F4004423
:103A200014F4004F30781E4F24D07B689DF820108E
:103A300098470125C4F30E04013CA4B24FF6FF7A67
:103A4000013CA4B2013CA4B254457B6806EB0508D6
:103A5000705D11D19DF8241098470DB108F8010C44
:103A60007B689DF828100020984788F80000002007
:103A7000BDE8F0870025E1E70021984705F101093D
:103A80001FFA89F9C0B21DB108F8010C4D46D9E7FB
:103A90000125D7E74FF0FF30EAE76FF00800E7E7CE
:103AA000A03C0020FFF724BEFFF728BE0B4610B94C
:103AB0000121184608E44FF0FF307047F8B504467E
:103AC00040B951B14AB143B1054885680698A84745
:103AD0002046F8BD4FF0FF30FBE76FF00800F8E735
:103AE000A03C00202DE9F04100244FF480472246FD
:103AF0004FF0010E114EDFF848C0A3B28B4203D342
:103B000002F00100BDE8F08137617761DCF80880E0
:103B1000DD0803F0070318F0400F0EFA03F310F866
:103B200005805BB21BBF43EA0803013228EA0303A6
:103B3000435514BFD2B243550134DEE700080140BB
:103B4000000C0140F0B500248E46234610274FF4A8
:103B500080410D4EDFF834C0A2B2724502D303F0AB
:103B60000100F0BDD508455D02F0070245FA02F2FA
:103B7000D20745BF013337617761DBB2CCF8101053
:103B80000134CCF81410E7E7000C014000080140B4
:103B90002DE9F74F4FF0000A81460F46D0461B4CE7
:103BA0001B4DBA451FFA8AFB04D108F0010003B08F
:103BB000BDE8F08F4FF48046164A2661D2F85032A5
:103BC000288801939847144B66619A6801234FEA4D
:103BD000DB010BF0070B12F0400F03FA0BF319F89F
:103BE00001205BB215BF134322EA030309F8013039
:103BF00009F8013018BF08F101082888019B18BF97
:103C00005FFA88F80AF1010A9847CAE700080140FC
:103C10004C3D002008D60008000C01402DE9F74F6C
:103C20000025814688462C46184EDFF86CA0184FB8
:103C30004545ABB204D104F0010003B0BDE8F08FFC
:103C4000DA0819F8022003F0070342FA03F313F02D
:103C5000010F4FF010034FF4804B0E4A14BF336135
:103C60007361DAF8503218BF0134108818BFE4B21B
:103C7000009301929847019AC7F810B01088009BF2
:103C800098470135C7F814B0D2E700BF000C0140D7
:103C9000000801404C3D002008D60008002307B56D
:103CA00002A840F8043D034B08215B68984703B025
:103CB0005DF804FB4C3D00202DE9F04F10278846AD
:103CC0000026BB4687B0494D8DF8070000F0040A76
:103CD000474C032204214548C5F810B0FEF796FC76
:103CE000636808210DF10700984704223F481146F8
:103CF000FEF78CFCD8F80030DFF8F8901A0A8DF83F
:103D000014308DF815201A0C1B0E8DF816208DF826
:103D10001730BAF1000F3ED0A368032103A89847DB
:103D2000A368202105A89847A3688DF80B000121FE
:103D300004A898479DF80B3099F8001018448DF8A6
:103D40000B00A36804A898472F610322042128468A
:103D5000FEF75CFCFFF7A2FF042228461146FEF79F
:103D600055FCBAF1000F02D0059BC8F8003003984B
:103D700000F00700022803902AD0042833D001283D
:103D80002ED19DF80B3013F0010F14BF112001202C
:103D900007B0BDE8F08F99F80010A368033103A8BD
:103DA00098470322042128462F61FEF72FFC636801
:103DB000202105A8984706AA02F80D0D6368012185
:103DC000104698479DF80B3018448DF80B00C1E75A
:103DD0000136A389B6B2B3423FF67AAF4220D7E7A5
:103DE00040F02000D4E78420D2E700BF000C01405F
:103DF0004C3D00200C040020042208B51146064862
:103E0000FEF704FC4FF480430448032203610E21B3
:103E1000BDE80840FEF7FABB000C01400008014075
:103E2000042208B511460548FEF7F0FBBDE808403E
:103E300004220E210248FEF7E9BB00BF000C01403E
:103E400000080140064B20B9064A9A60064A5A60AB
:103E50007047064A01389A60054A18805A607047D0
:103E60004C3D0020E53A0008453B0008913B000826
:103E70001D3C00080E289CBF014B1870704700BF06
:103E80000C040020014B9881704700BF4C3D00207E
:103E9000002814BF4FF0FF300020704710B50446D3
:103EA00018B9FFF7BDFF204610BD4FF0FF30FBE70C
:103EB00038B51D46044658B90846FFF7DBFF064BE8
:103EC00028469A81FFF7BEFFFFF796FF204638BDD0
:103ED0004FF0FF30FBE700BF4C3D0020F8B50E4629
:103EE00017460446A0B9B1B110230C4D03222B6133
:103EF00004212846FEF78AFB094B39465B683046A9
:103F00009847042228461146FEF780FB2046F8BD5C
:103F10004FF0FF30FBE76FF00800F8E7000C0140BE
:103F20004C3D002038B50B46044638B949B1064926
:103F300018468D681146A847204638BD4FF0FF301F
:103F4000FBE76FF00800F8E74C3D002020B51D4668
:103F5000E8B9FAB1C1F38003C1F340001844C1F3DA
:103F6000C003184400EB111000F0010041EA4010BA
:103F700000F0BF00114640F08100FFF79DFE05B143
:103F8000287001280CBF00206FF0050020BD4FF005
:103F9000FF30FBE76FF00800F8E700BF2DE9F041C4
:103FA0000027364A364D1368844623F00103136018
:103FB000C81C05F118035060D36013682E8E43F0BF
:103FC00001031360B5F832E04B1E2E805BB2AC1CCF
:103FD0004CFA03F818F0010F03F1FF3304F1020467
:103FE00018BF01375BB21ABF24F802EC7FB224F885
:103FF000026C002BECDA17F0010F4FF0000318BF32
:1040000076466380268001241E4B9C8203F5FE3396
:1040100030331C6824F001041C605860DD601868AF
:1040200040F001001860303B18688705FCD54FF45C
:10403000007058601448154B04460668B60401D455
:10404000013BFAD14FF400506060106820F001008D
:1040500010600A2050600E48D060106840F00100E7
:1040600010604BB105EB4101888BAB8E984294BF39
:1040700000200120BDE8F0810120FBE74400024060
:104080005A3D00200004004000000240FFFF0F00E6
:10409000743D0020002814BF4FF0FF30002070470F
:1040A00010B5044660BB042217481146FEF7AEFA6D
:1040B00021461648FCF798FA1548FCF7FEFD214604
:1040C0000220FCF7FFFB1348FCF7C0F82146012053
:1040D000FCF7E0FB1048FCF7F0FD21460420FCF75C
:1040E000F1FB0E48FCF7B2F80D48FCF7AFF80120E1
:1040F0002146FCF7CFFB20460A4B83F8364010BD23
:104100004FF0FF30FBE700BF000C014000081A0031
:10411000000400403000024000080040440002401B
:10412000080002405A3D00202DE9F04F884693B028
:1041300017469946002840F09E80504C94F836600F
:10414000002E65D101252946284684F83650FCF713
:10415000A1FB29460220FCF7B5FB4948FCF776F89D
:1041600007A8FCF709F9474B4FF4807B079380239E
:10417000CDE90C3B4FF480634FF0100ACDE90E36C9
:104180004FF4805307A93E48CDE91036CDE909A682
:104190000B96FCF7D3F829463948FCF7FAF868463D
:1041A000FCF7BEFF69463848CDE900668DF8086027
:1041B000FCF768FE03A8FCF7BCFF344B03A903938C
:1041C00002233148ADF81430ADF81260FCF7A4FEBC
:1041D00008212D48FDF7B8F829462B48FDF788F847
:1041E0002A4659462848FCF7E3FF29462648FCF7AB
:1041F000BBFF29462448FCF7C2FF29462448FCF7A8
:10420000F3F924480F22C0F810A00421FEF7FEF9AC
:10421000218F61B9482292FBF8F291B208FB02F2B9
:10422000C2F14802B2EB580FA8BF0131C9014F4398
:1042300001FB09F1C7F3CF1307F07F073F2FC8BF7A
:1042400001332386C1F3CF1301F07F013F29C8BF9B
:1042500001336386628E238E0B4913449BB203EBBA
:10426000D30292B28A8501220020D3408A82A3869B
:1042700013B0BDE8F08F4FF0FF30F9E75A3D002052
:10428000300002403404004000040040600001009F
:1042900000081A00000C014008B540B90321FFF7DF
:1042A0007DFE002814BF6FF00500002008BD4FF010
:1042B000FF30FBE72DE9F347894690461F4600286B
:1042C00054D122B96FF0050002B0BDE8F087002993
:1042D000F8D00546A84501D80020F5E73B0AA8EB31
:1042E00005048DF805303B0CFF2C8DF806304FF09F
:1042F00003014FEA17634FF00200D4BFE4B2FF247A
:104300008DF804708DF80730FFF748FE0028D9D1EA
:1043100008212046FFF742FE0028D3D1019E082144
:10432000C6F30740FFF73AFE0028CBD10821C6F3B9
:104330000720FFF733FE0028C4D10821F0B2FFF7B1
:104340002DFE0028BED1064609EB050AF3B29C42B9
:1043500003D827442C44A5B2BCE71AF8060008216C
:10436000FFF71CFE01360028F0D0ABE74FF0FF301E
:10437000AAE72DE9F04F87B0019190461E4600282C
:1043800040F0C18022B96FF0050007B0BDE8F08FA2
:10439000019B002BF7D00546A84501D80020F4E783
:1043A000330AA8EB05048DF81530330CFF2C8DF87B
:1043B00016304FF003014FEA16634FF00100D4BFEF
:1043C000E4B2FF248DF814608DF81730FFF7E6FD96
:1043D0000028D8D108212046FFF7E0FD0028D2D1DF
:1043E000DDF814A00821CAF30740FFF7D7FD002825
:1043F000C9D10821CAF30720FFF7D0FD0028C2D198
:1044000008215FFA8AF0FFF7C9FD0028BBD14FF001
:10441000010B3E4B3E485A8EB3F834900292019AFB
:1044200000932A44111903913A49039B9A4203D1FC
:1044300025442644ADB2AFE7DFF8ECC0364BD3F8E5
:1044400000E01EF4005F02D1BCF1010CF6D14FF484
:1044500000534FF0000E304F7B6082F800E0BCF15B
:10446000000F90D0009BB3F81AC0CC458BD24FF010
:10447000070C2A4B33F802EFCE453FBF92F800E01D
:104480000BFA0CFA4EEA0A0E82F800E01CF1FF3C2F
:10449000F0D2D1F800C0224B2CF0010CC1F800C0C2
:1044A0004FF00B0CC1F804C0CB60D1F800C0029BE8
:1044B0004CF0010CC1F800C04FF0000C009F3B8095
:1044C000184BA7F802C0A3F814B0D0F800C0009BA6
:1044D0002CF0010CC0F800C04FF0020CC0F804C072
:1044E000C360D0F800C04CF0010CC0F800C00A4B0B
:1044F000D3F800C01CF4007FF9D04FF4007C0132E7
:10450000C3F804C091E74FF0FF303EE75A3D00206A
:10451000300002404400024000000240743D002090
:10452000723D002000040040FFFF0F0030B500285E
:104530004BD1482393FBF1F302259AB24B43C3F1CD
:104540004803B3EB510F2449C8BF01320B68D201B5
:1045500023F001030B60214B4D6003F11800C8608C
:104560000868541C40F0010008601D49A4B2888D01
:104570008C8501248C821A8000225A80194A8C82F0
:10458000116880B221F0010111605560D36011689B
:10459000303A2143116311688905FCD54FF400714D
:1045A00051601149114A0C460D68AD0401D4013A1D
:1045B000FAD14FF400516160094988850120888251
:1045C00032B100205A8B1A8730BD4FF0FF30FBE725
:1045D0006FF00500F8E700BF440002405A3D00209C
:1045E000000400403000024000000240FFFF0F00C6
:1045F0002DE9F04704468EB0002840F0D08001211C
:104600004FF080094FF480684FF400554FF4807AE2
:10461000644F654E38870846FCF73CF901210420B9
:10462000FCF750F93046FBF711FE03A8FBF7A4FE98
:104630005E4B304603A90393CDE90C54CDE9054404
:104640000794CDE90A84CDE9089AFBF777FE0121AA
:104650003046FBF79EFE5648FBF7F8FD03A8FBF734
:104660008BFE544B03A952480393CDE90B45CDE98A
:104670000544CDE907490D94CDE909A8FBF75EFE95
:1046800001214B48FBF785FE6846FCF75CFD0425DD
:10469000022369464848CDE90053ADF80840FCF7CD
:1046A000A5FF50214448FCF7DAFD29464248FCF7B3
:1046B00066FF49464048FCF76CFF012241463E48F0
:1046C000FCF776FD01224FF400713B48FCF770FDCA
:1046D000012221463848FCF7B7FD01213648FCF796
:1046E00043FD3368183723F0010333600A237360F6
:1046F000F7603368314C43F00103336040232046B8
:10470000636103220621FDF781FF2D4B4FF47A7080
:10471000D3F85062B047382206212848FDF776FFCB
:104720004FF4FA70B0474023032263610621234807
:10473000FDF76CFF013D4FF4FA70B04715F0FF052F
:10474000E9D104241D4D382206211C48FDF75EFFE7
:10475000FA20B047402303226B6106211748FDF77A
:1047600055FF013CFA20B04714F0FF04EBD138228A
:1047700006211248FDF74AFF124A134B11461068F2
:10478000840401D4013BFAD1002B4FF400520CBF3A
:104790006FF0050000204A600EB0BDE8F0874FF0D2
:1047A000FF30F9E75A3D002044000240380800403D
:1047B000080002403408004000080040000C01409E
:1047C00008D6000800000240FFFF0F0038B504467D
:1047D00040B9064B0120D3F8F450A8471020A84751
:1047E000204638BD4FF0FF30FBE700BF70D800080F
:1047F00038B5044640B9064B0120D3F8F850A84715
:104800001020A847204638BD4FF0FF30FBE700BF1F
:1048100070D80008F0B50F4685B0164648BB164D57
:1048200002A9D5F8FC400120A04720B16FF0060492
:10483000204605B0F0BD69461020A0470446002878
:10484000F4D1009A039B9A42F0D3DDE901239A4206
:10485000ECD846F004023946D5F808510120A847A3
:104860004FF47A7300993246B1FBF3F11020A84758
:10487000DEE74FF0FF34DBE770D80008F0B5059EA7
:1048800010BB069DDFF84CC0114FED08A84201D1C6
:104890000020F0BD1BB113F8014BACF80C4089B1FE
:1048A00011F8014BA4B2BC813C892406FCD41EB192
:1048B000BCF80C4006F8014B12B1BC8902F8014B60
:1048C0000130E3E70C46EDE74FF0FF30E1E700BFD2
:1048D0000038004000300140044B4FF480621978EA
:1048E000034B09B15A6170471A617047943D00202B
:1048F000000C01402DE9F0414FF400430B4C98B1FE
:1049000023614FF480470A4B0A4ED3F85052708807
:10491000A84770882761400080B2A8476761708807
:104920002B46BDE8F04118476361EAE70008014003
:1049300008D60008943D0020002814BF4FF0FF3037
:104940000020704710B50446A8B904220A210B487C
:10495000FDF75CFE04220E210948FDF757FE0422F4
:104960000F210748FDF752FE044804220D21FDF7F0
:104970004DFE204610BD4FF0FF30FBE7000C01401C
:1049800000080140F8B50D46044620BB134F144EF5
:104990003A70FFF7A1FF03220A211248FDF736FE05
:1049A0004FF48043032273610E213046FDF72EFE43
:1049B00003220F213046FDF729FE0A4804220D216B
:1049C000FDF724FE002D08BF0125FA2393FBF5F522
:1049D00020467D80F8BD4FF0FF30FBE7943D00207E
:1049E00000080140000C01402DE9F74F0D9E89465B
:1049F000144698469DF84070002868D1354D364BD6
:104A000029784FF4806269B31A610120FFF772FFC1
:104A10004FF0010A14F1FF3426D24FF001099DF83E
:104A2000304014F1FF3426D24FF001089DF8384091
:104A300014F1FF3426D20024DFF8A0A0DFF8A08014
:104A4000DFF894900194A3B29F4221D8FA1DD208B6
:104A500001A90F98FDF78CFCFFF73EFF002003B083
:104A6000BDE8F08F5A61D0E70AFA04F000EA0900C5
:104A7000FFF740FFCEE709FA04F000EA0800FFF76D
:104A800039FFCEE708FA04F03040FFF733FFCFE7F5
:104A90004FF4804BDAF850626888B0476888C8F8ED
:104AA00010B0400080B2B047C8F814B0D9F808B0D0
:104AB0006888B0471BF4005F07D001237A1E121BE1
:104AC00003FA02F2019B134301930134BBE74FF059
:104AD000FF30C4E7943D0020000C014008D60008D8
:104AE00000080140F8B50D461446E8B9104B4FF4E4
:104AF000806219780F4B81B11A610E4E0E4FB36868
:104B00009B0402D4013CA4B24CB9FFF7E5FE002C93
:104B100014BF00206FF00500F8BD5A61EDE7D7F82B
:104B2000503228469847EAE74FF0FF30F4E700BFDD
:104B3000943D0020000C014008D6000838B50B4C0D
:104B40002388B3F5E16F0DD2A2785AB9084D4FF41E
:104B50008071D5F88830012098470122AB6F082179
:104B600010469847A3780133A37038BD983D0020C4
:104B700070D80008084A82B093785BB1013BDBB281
:104B800093703BB9042208210120044B9B6F0193D1
:104B900002B0184702B07047983D002070D8000856
:104BA00010B5034CA37803B910BDFFF7E3FFF9E795
:104BB000983D0020014B9878704700BF983D002039
:104BC00020B931B1044B1B880B8070474FF0FF3088
:104BD00070470846704700BF983D002070B5002818
:104BE00042D1234DAC882E464CB1012C11D0631C10
:104BF0009BB2B3F5804F34BFAB80A88010E01D4B53
:104C00000821D3F84C319847AB880133AB8020465C
:104C100070BD184D0821D5F850319847044608B1A9
:104C20000024F4E70821D5F85431984741F6C81319
:104C30005843C0F30F30B0F5E16F98BF4FF4004216
:104C40003080D5F8883086BF22464FF400411146A7
:104C5000204698473388B3F5E16F01D2FFF7A0FFF4
:104C6000B3880133B380D2E74FF0FF34CFE700BF02
:104C7000983D002070D8000870B5002836D11F4B31
:104C800040F6E44298781D46D0B99142987130D1EF
:104C90000123AB71FFF752FF194B0A20D3F84C32B6
:104CA0009847AB88012B19D90A240026AE80AB881F
:104CB000012B17D9601E10F0FF04F7D1204670BDFC
:104CC000914203D19B79002BE6D1E1E799B99B7919
:104CD000002BE1D0A971FFF763FFDDE70020FFF7AC
:104CE0007DFFDEE70020FFF779FFE0E74FF0FF30C0
:104CF000E5E70029D0D06FF00500E0E7983D0020FF
:104D000008D60008F8B500240A4E0B4D0B4FB368C7
:104D10009B0401D50020F8BDD7F850322888984769
:104D20002B881C446B88A4B2002BF0D0A342EED891
:104D30000220F0E700080140A03D002008D600084E
:104D40002DE9F8434FF400561E4B1F4C1F4DD3F86E
:104D500050722661A888B8472661FFF7D3FF8046C6
:104D600020B14FF002084046BDE8F883FFF7CAFFC4
:104D700020BB4FF40056A888400080B2B847A888EE
:104D80006661400080B2B8476661ECE7B847A88822
:104D90006661400080B2B8472661FFF7B3FF002884
:104DA000DFD109F1FF3919F0FF09DAD0A368A8882B
:104DB0009B044FEA400080B2E8D5DAE74FF00B09D8
:104DC000F4E700BF08D6000800080140A03D00201D
:104DD000F8B54FF400550D4C0D4B0E4FD3F8506203
:104DE0006561B888B0476561B888B0472561FFF74D
:104DF00089FF08B10220F8BDB888400080B2B047F2
:104E00002561FFF77FFF0028F5D0F3E70008014098
:104E100008D60008A03D00202DE9F047DFF8A0A04B
:104E200081464FF008085746234BD3F85052BAF842
:104E30000400A84719F0800F204C4FF4005308D00D
:104E40002361FFF75FFF28B14FF002084046BDE83D
:104E5000F08763614FF40056B8884FEA4909A847C4
:104E600026615FFA89F9FFF74DFF0028ECD1B88879
:104E700008F1FF38400080B2A84718F0FF086661CB
:104E8000D5D1B888A8472661B888A8472661FFF71A
:104E900039FF80460028D7D1B888400080B2A847A3
:104EA000A368F88813F4005F666103D0A8474FF049
:104EB0000108CBE7A847C9E708D600080008014069
:104EC000A03D002030B58508074C06D0A58049B12B
:104ED00061802280E380002030BD0028F6D00120D0
:104EE000A080F4E70121F3E7A03D00202DE9F04187
:104EF0001F460023069D04462B8088461646FFF772
:104F00001FFF20B904F0FE00FFF786FFB0B1FFF7E6
:104F10005FFF03242046BDE8F0812B88012803F1C0
:104F200001039BB22B8009D1012F01D1FFF750FF64
:104F30002C88B4422CBF00240124EBE72B88B34219
:104F4000F2D218F80300FFF767FF02280446E4D105
:104F5000FFF73EFFDEE72DE9F04F85B002939DF8A5
:104F600038300F9F019300233B8004460091924606
:104F7000FFF7E6FE00287CD144F00100FFF74CFF6C
:104F8000002876D13D4C3B889A450AD8029B012BDC
:104F900001D1FFF71DFF388850452CBF00200120AC
:104FA0004AE0009A02EB030B019A002A47D00AF16B
:104FB000FF39A9EB0301D1F1000949EB01090021F7
:104FC000009A4FF00808D1544FF4005323612C4B42
:104FD0002C4ED3F85052B088400080B2A8474FF40E
:104FE00000532361FFF78EFE18BBB08808F1FF382D
:104FF000400080B2A8479BF800305B00DBB28BF822
:105000000030A1688A0444BF43F001038BF80030EC
:105010004FF4005318F0FF086361DCD1B0880393AC
:10502000A847039BB9F1000F0CD02361FFF76AFE7C
:1050300048B1FFF7CDFE022005B0BDE8F08FDDF8E6
:105040000490BCE763614FF40058B088A847C4F8E7
:105050001080FFF757FE0028EBD1B088400080B2E7
:10506000A847C4F81480F088A8473B8801333B80E8
:1050700089E7FFF7ADFE0320DEE700BF000801402F
:1050800008D60008A03D00204FF4005208B5074B99
:105090001A611A61FFF736FE28B9FFF733FE0030B8
:1050A00018BF012008BD0120FCE700BF0008014037
:1050B000FFF7EABF10B5044658B907220D2106488C
:1050C000FDF7A4FA044807220D21FDF79FFA2046B8
:1050D00010BD4FF0FF30FBE70008014010B598B954
:1050E000FFF7D2FF042200284FF00D0108480CBF43
:1050F00000246FF00504FDF789FA04220D2104480D
:10510000FDF784FA204610BD4FF0FF34FAE700BFE8
:105110000008014038B54FF47A741D4694FBF1F451
:1051200060B91346294601222046FFF7CBFE10B98D
:10513000FFF7AAFF08B16FF0050038BD4FF0FF3050
:10514000FBE71FB50C4611461A46A0B90DF10E0338
:1051500001939DF81C30E0B200939DF818300033A5
:1051600018BF0123FFF7F7FE00280CBF00206FF0E7
:10517000050004B010BD4FF0FF30FAE71FB50C4634
:1051800011461A4688B90DF10E0300939DF81830A8
:10519000E0B2003318BF0123FFF7A8FE00280CBFC0
:1051A00000206FF0050004B010BD4FF0FF30FAE7AB
:1051B00038B54FF48045094C38220B210848FDF7DB
:1051C00025FA03220E2120466561FDF71FFA054BE3
:1051D0000120D3F84C329847256138BD00080140C2
:1051E000000C014008D6000808B538220B210548FC
:1051F000FDF70CFABDE8084004220E210248FDF735
:1052000005BA00BF000C0140000801402DE9F14F34
:105210004FF4804B4FF40065294B2A4CD3F8509241
:10522000294FC4F814B082460020C847C4F810B013
:105230000020C84703220B217D613846FDF7E6F9BF
:10524000C4F814B00020C847C4F810B00020C84704
:105250003D610020C4F814B0C847C4F810B0002065
:10526000C84738220B213846A046FDF7CFF908255C
:1052700000265C46C8F814400020C847C8F8104013
:105280000020C847BB6876081B0548BF66F07F064C
:1052900005F1FF3548BFF6B215F0FF05EAD14FF42E
:1052A00080448AF800602846C8F81440C847284659
:1052B0004B46C8F8104001B0BDE8F04F184700BF9A
:1052C00008D6000800080140000C01402DE9F04715
:1052D0004FF480464FF40068234B244CD3F85052CF
:1052E0006661234F81460020A84726610020A84719
:1052F00003220B213846C7F81080FDF787F9666155
:105300000020A84726610020A84766610020A84722
:1053100026610020A84708264FF4804A19F0010FA3
:1053200014BFC7F81080C7F814800020C4F814A078
:10533000A847013EC4F810A00020A84716F0FF06B9
:105340004FEA5909E8D138220B210948FDF75EF9E7
:10535000C4F814A03046A847C4F810A030462B4625
:10536000BDE8F047184700BF08D600080008014014
:10537000000C01402DE9F0474FF48044354D364B89
:105380000746D3F850626C610020B0472C610020C2
:10539000B0474FF40063DFF8C48003220B21C8F844
:1053A00014304046FDF732F96C610020B0472C61A3
:1053B0000020B0476C610020B0472C610020B0474E
:1053C0006C610020B0472C610020B0476C61002068
:1053D000B0472C610020B04738220B214046FDF732
:1053E00015F96C610020B0472C610020B047002007
:1053F000B047D8F808301A05F3D508244FF0000854
:105400004FF48049DFF854A0C5F814900020B0474D
:10541000C5F810900020B047DAF808304FEA580875
:105420001B0548BF68F07F0804F1FF3448BF5FFAEE
:1054300088F814F0FF04E7D187F800804FF4804724
:1054400020466F61B0472F612046B0472046BDE837
:10545000F08700BF0008014008D60008000C01409A
:105460002DE9F0474FF480464FF400682E4B2F4C47
:10547000D3F850522E4F814666610020A84726611E
:105480000020A84703220B213846C7F81080FDF7FB
:10549000BDF866610020A84726610020A847C7F82C
:1054A000148000206661A84726610020A847666135
:1054B0000020A84726610020A84766610020A84771
:1054C00026610020A8474FF0080A4FF4804619F0E3
:1054D000010F14BFC7F81080C7F814800020666160
:1054E000A8470AF1FF3A26610020A8471AF0FF0AF0
:1054F0004FEA5909E9D138220B210D48FDF786F80A
:105500000B4F66610020A84726610020A847BB68B2
:105510001B05F6D566610020A84726610020A84734
:105520000020BDE8F08700BF08D600080008014051
:10553000000C014010B5044618B9FFF739FE2046AB
:1055400010BD4FF0FF30FBE710B5044618B9FFF768
:105550004BFE204610BD4FF0FF30FBE710B5044670
:1055600020B90846FFF7B2FE204610BD4FF0FF30CD
:10557000FBE710B5044620B90846FFF747FE204672
:1055800010BD4FF0FF30FBE708B540B90846FFF704
:10559000F1FE002814BF6FF00500002008BD4FF099
:1055A000FF30FBE708B540B90878FFF759FF00283E
:1055B00014BF6FF00500002008BD4FF0FF30FBE77F
:1055C00070B50B4B4FF4006278B11A614FF480460E
:1055D000084B094DD3F850422E610020A0476E6160
:1055E0002346BDE87040002018475A61EEE700BF2F
:1055F000000C014008D6000800080140F8B54FF43F
:105600008046074D074B2E619F68074B0020D3F85B
:105610005042A0476E610020A047C7F3C020F8BDEC
:1056200000080140000C014008D600082DE9F041B7
:105630000546984629480F4614460B2103229DF83B
:105640001860FCF7E3FF0120FFF7BAFF2846FFF7D9
:10565000B7FF4046FFF7B4FF082507F08000013D83
:10566000FFF7AEFF7F0015F0FF05FFB2F5D1B8F1EF
:10567000000F22D028220B211848FCF7C7FF0A2769
:105680002C46FFF7BBFF6400E4B2013F044317F070
:10569000FF07E4B2F5D103220B211048FCF7B6FF57
:1056A0000125013DEDB2FF2D14D128220B210B481D
:1056B000FCF7ACFF2046BDE8F081082504F080002F
:1056C000013DFFF77DFF640015F0FF05E4B2F5D161
:1056D0000325E6E73046FFF773FFE2E7000C0140E1
:1056E00010B503220B210948FCF790FF1624002077
:1056F000013CFFF765FF14F0FF04F8D12822BDE854
:1057000010400B210148FCF781BF00BF000C014095
:105710002DE9FF470E4600287CD1414D0DF10E01C9
:10572000D5F8D83098470746002876D126B9BDF875
:105730000E30B3F5E16F70D83A4C03220B212046AE
:10574000FCF764FF012E32D1FFF7F8F9D5F84C824F
:105750004FF480653046C04703220A212046256168
:10576000FCF754FF3046C04765614FF480432E4834
:10577000032243610E21FCF749FF002350211A4602
:1057800000930120FFF752FFFFF7AAFFFFF7A8FFE2
:10579000FFF7A6FFFFF7A4FFFFF7A2FF28220B21C8
:1057A0002048FCF733FF384604B0BDE8F087002EF0
:1057B000DBD1DFF878A028220B212046FCF726FF5A
:1057C00004220821DAF878900120C847D5F84C82E5
:1057D0000120C047DAF8883032464FF4807101204A
:1057E0009847012208211046C8470520C0474FF4BA
:1057F0007A76A3681B0502D5013EB6B22EB9032204
:105800000B210848FCF702FFAFE7D5F850320A2019
:105810009847EEE74FF0FF37C5E76FF00507C2E79F
:1058200008D60008000C01400008014070D80008AC
:1058300070B50D46044638BB012916D14FF480637C
:10584000134E08463361134BD3F84C329847382235
:105850000A213046FCF7DAFE04220E210E48FCF73E
:10586000D5FEFFF787F920460DE00029FBD10B4B51
:10587000042208219B6F01209847074804220E212B
:10588000FCF7C4FE284670BD4FF0FF30FBE700BFB9
:10589000000C014008D600080008014070D800083C
:1058A00070B5002839D128220B211D48FCF7AEFE27
:1058B0006424FFF7A3FE1A4D1A4EAB681A0518D5DB
:1058C00042F21074164D174EAB681B051CD44FF4F2
:1058D000006303226B610B211148FCF797FE28241B
:1058E0000020013CFFF76CFE14F0FF04F8D12046C5
:1058F00009E0013CD6F850320A20A4B29847002CA7
:10590000DBD16FF0050070BD013CD6F850320A20A3
:10591000A4B29847002CD7D1F3E74FF0FF30F2E75D
:10592000000C014008D6000838B50446A0B94FF471
:1059300080630B4D38226B610A212846FCF766FE16
:1059400028220B212846FCF761FE064804220E217E
:10595000FCF75CFE204638BD4FF0FF30FBE700BF90
:10596000000C01400008014008B9FFF7DDBF4FF00F
:10597000FF307047F7B5089C0D46074611461A469A
:10598000D8B915F0080604D0FFF7AAFE384603B0D0
:10599000F0BD05F0040305F0010015F002050093C9
:1059A00006D00123FFF742FE54B120703046EEE7E7
:1059B0002B46FFF73BFE2846E9E74FF0FF30E6E7CE
:1059C0002046E4E72DE9F84F81464FF0000A164CD7
:1059D000164FDFF85C80CE00564501D1BDE8F88F48
:1059E0004FF4804BD7F85052C4F814B00020A847A9
:1059F0000123C4F810B0D8F808204FEADA010AF001
:105A0000070012F4006F03FA00F319F801205BB2EB
:105A100014BF134322EA030309F801300020A8470A
:105A20000AF1010AD8E700BF0008014008D60008C3
:105A3000000C01402DE9F84303220D4681460B215D
:105A40001548FCF7E3FD0024144E134FED00A5426A
:105A500006D1BDE8F84338220B210F48FCF7D6BD2C
:105A60004FF480437361E30819F8033004F0070230
:105A7000134113F0010F4FF4006314BF3B617B61CE
:105A8000074B0020D3F85082C0474FF480430020DA
:105A90003361C0470134DAE7000C014000080140DF
:105AA00008D6000838B50446D0B94FF480630E4DCF
:105AB00003226B610A212846FCF7A8FD4FF48043BE
:105AC0000A48032203610E21FCF7A0FD4FF4006396
:105AD00028462B6103220B21FCF798FD204638BD98
