:020000040800F2
:10000000005000202DD400086DD400086DD40008E5
:100010006DD400086DD400086DD400080000000005
:100020000000000000000000000000006DD4000887
:100030006DD40008000000006DD400086DD40008E5
:100040006DD400086DD400086DD400086DD400088C
:100050006DD400086DD400088581000889810008EE
:100060008D81000891810008958100086DD40008F9
:100070006DD400086DD400086DD400086DD400085C
:100080006DD400086DD400086DD40008C77A00084C
:10009000C37A00086DD400086DD400089981000867
:1000A0006DD400086DD400086DD400086DD400082C
:1000B0006DD400086DD400086DD400086DD400081C
:1000C0006DD400086DD400086DD400086DD400080C
:1000D0006DD40008A58600086DD400086DD4000812
:1000E000C58100086DD40008CB7A0008000000002C
:1000F0000000000000000000000000000000000000
:0C01000000000000000000005FF808F1A3
:10011000EFF309800046704780F309887047EFF3DA
:1001200008800046704780F308887047EFF312801C
:10013000704780F311887047EFF31080704780F3A9
:1001400010887047EFF31380704780F3138870476F
:10015000EFF31480704780F31488704700BA70473B
:1001600040BA7047C0BA704790FAA0F07047D0E824
:100170004F0FC0B27047D0E85F0F80B2704750E8B1
:10018000000F7047C1E8430F18467047C1E8530F8E
:100190001846704741E8000070470000034B40F0EC
:1001A000BF6040F40030D860704700BF00ED00E051
:1001B00070B50125017801F01F039D40C3784C09FB
:1001C000C3B10F4BDA684378D243C2F30222C2F1C3
:1001D000040603FA06F683780F2020FA02F2134091
:1001E0003343084A1B01DBB2114481F8003342F863
:1001F000245070BD034B203443F82450F9E700BF6E
:1002000000ED00E000E100E021F06041024B21F050
:100210007F0101439960704700ED00E0044B1A69CB
:1002200011B110431861704722EA0000FAE700BFDD
:1002300000ED00E0044B04281A680CBF42F00402F1
:1002400022F004021A60704710E000E0036823F017
:10025000010303600023036043608360C360294B94
:10026000984204D1284A536843F00F0326E0274BF5
:10027000984204D1244A536843F0F0031EE0244B13
:10028000984204D1204A536843F4706316E0214B2E
:10029000984204D11C4A536843F470430EE01E4B4D
:1002A000984204D1184A536843F4702306E01B4B6C
:1002B000984205D1144A536843F470035360704761
:1002C000174B984204D1104A536843F07063F5E726
:1002D000144B984201D1144AC5E7144B984201D1FE
:1002E000114AC8E7124B984201D10F4ACBE7114B94
:1002F000984201D10C4ACEE70F4B9842DFD10A4A0F
:10030000D1E700BF08000240000002401C0002408C
:100310003000024044000240580002406C0002409D
:100320008000024008040240000402401C04024015
:100330003004024044040240580402408B6810B567
:100340000C6A026823430C6922F4FF4223434C6980
:1003500022F0700223438C692343CC6923434C6A07
:1003600023438C6A234313430360CB6843600B68C9
:1003700083604B68C36010BD0023C0E90033C0E94F
:100380000233C0E90433C0E90633C0E908338362AD
:100390007047036819B143F001030360704723F00D
:1003A0000103FAE7036812B119430160704723EAB9
:1003B0000101FAE7406880B27047C3004CBF044BAC
:1003C000044B1B68034214BF01200020704700BF8C
:1003D0000004024000000240C3004CBF014B024B2E
:1003E000586070470004024000000240FFF7E5BF7C
:1003F000FFF7F2BF08B5264B984209D1012104202E
:1004000000F068FA00210420BDE8084000F062BA5C
:10041000204B984206D10121082000F05BFA002110
:100420000820F1E71C4B984206D10121102000F072
:1004300051FA00211020E7E7184B984206D101211C
:10044000202000F047FA00212020DDE7144B9842DD
:1004500006D10121402000F03DFA00214020D3E7E1
:10046000104B984206D10121802000F033FA002180
:100470008020C9E70C4B984208D101214FF48070CD
:1004800000F028FA00214FF48070BDE708BD00BFDE
:1004900000080140000C0140001001400014014020
:1004A00000180140001C014000200140012108B556
:1004B000084600F00FFABDE808400021012000F0D6
:1004C00009BA2DE9F041CB780E88DA0648BF8A7860
:1004D00003F00F0548BF15430A78D2B100214FF051
:1004E000010C4FF00F0E02680CFA01F737EA060410
:1004F0000BD18C000EFA04F822EA080205FA04F483
:10050000282B42EA040224D1476101310829EBD1AA
:100510000260FF2E1BD908244FF0010C4FF00F0E84
:1005200041680CFA04F737EA06020CD1A200203A1F
:100530000EFA02F821EA080105FA02F2282B41EA34
:1005400002010AD147610134102CEAD14160BDE8B3
:10055000F081482B08BF0761D7E7482B08BF076128
:10056000F1E74FF6FF73038040F202434380704788
:100570008368194214BF012000207047806880B250
:100580007047C368194214BF012000207047C0683B
:1005900080B2704701617047416170470AB10161E3
:1005A000704741617047C160704741F48033836197
:1005B00081618361836983697047054A136823F009
:1005C0007F031B041B0C0B4343EA001313607047AB
:1005D00000000140014B1860704700BF1C00204222
:1005E0000028164A30B500F44015B4BFD3695368EB
:1005F000B5F5401F84B210D1556823F0706325F023
:100600007065556019B1420D1201944023430B4AA5
:100610000028B4BFD361536030BDC2024DBF032276
:10062000420D1201C0F303454CBFAA4004FA02F286
:1006300023EA020343F07063E4E700BF00000140D7
:1006400010B50F2401F0030301F0FC0101F180411A
:1006500001F580318A689B009C4022EA04028A608E
:100660008A6898401043886010BD014B186070473D
:10067000DC0020420D4B1A6842F001021A605968F2
:100680000B4A0A405A601A6822F0847222F48032BF
:100690001A601A6822F480221A605A6822F4FE0254
:1006A0005A604FF41F029A60704700BF001002406A
:1006B0000000FFF80C4BB0F5803F1A6822F480323E
:1006C0001A601A6822F480221A6003D0B0F5802FD5
:1006D00005D070471A6842F480321A6070471A6871
:1006E00042F4A022F9E700BF00100240034A136859
:1006F00023F0F80343EAC003136070470010024080
:10070000014B1860704700BF00004242034A536823
:1007100023F47C130B4303435360704700100240E3
:10072000014B1860704700BF60004242034A5368A3
:1007300023F0030303435360704700BF00100240DF
:10074000024B586800F00C00704700BF00100240D8
:10075000034A536823F0F00303435360704700BF1C
:1007600000100240034A536823F4E06303435360DC
:10077000704700BF00100240034A536823F46053DF
:1007800043EAC0035360704700100240044B1A78DC
:1007900011B110431870704722EA0000FAE700BF59
:1007A00009100240014B1860704700BFD800424258
:1007B000034A536823F4404303435360704700BF28
:1007C000001002400022064B01281A701A7002D055
:1007D000042802D070471870704705221A707047BD
:1007E00020100240014B1860704700BF8004424255
:1007F000024A136A03431362704700BF00100240AD
:10080000014B1860704700BF3C0442421B4A10B5C0
:10081000536803F00C03082B1FD0194B0360536877
:100820001849C3F30313CC5C0368E3404360546886
:10083000C4F302240C5D23FA04F484605468C4F306
:10084000C2240C5DE340C3605268C2F3813211449C
:100850000A7CB3FBF2F3036110BD53685168C3F324
:100860008343CC0303F1020302D407494B43D5E78A
:1008700051688903F9D40249F8E700BF001002402B
:1008800000127A000000002000093D00044B5A6964
:1008900011B110435861704722EA0000FAE700BF27
:1008A00000100240044B9A6911B1104398617047DF
:1008B00022EA0000FAE700BF00100240044BDA69A8
:1008C00011B11043D861704722EA0000FAE700BF77
:1008D00000100240044BDA6811B11043D860704731
:1008E00022EA0000FAE700BF00100240044B1A6938
:1008F00011B110431861704722EA0000FAE700BF07
:1009000000100240014B1860704700BF4004424293
:10091000014B1860704700BF4C004242014B1870F9
:10092000704700BF071002404209012A074B07D158
:100930001B6800F01F0023FA00F000F00100704770
:10094000022A0CBF1B6A5B6AF3E700BF001002407B
:10095000002307B501933120FFF7E6FF019B013328
:100960000193019BB3F5A06F01D00028F3D0312093
:10097000FFF7DAFF003818BF012003B05DF804FB71
:10098000024A536A43F0807353627047001002407A
:10099000034B9B68184214BF01200020704700BF22
:1009A00000100240014B1870704700BF0A1002404F
:1009B00008B5154B98420BD101214FF48050FFF739
:1009C00089FFBDE8084000214FF48050FFF782BF47
:1009D0000E4B98420BD101214FF48040FFF786FF68
:1009E00000214FF48040BDE80840FFF77FBF084B6F
:1009F000984208D101214FF40040FFF777FF002112
:100A00004FF40040EFE708BD0030014000380040DF
:100A1000003C0040038810B503F441524C880B8819
:100A200023438C882343CC8823430C8923434C895C
:100A300023438C892343CC89234313439BB20380F4
:100A4000838B23F400631B041B0C83830B8A0382B8
:100A500010BD838BF0B523F47B6323F00F031B04DD
:100A60001B0C8383022303848B68848B022B054633
:100A70000E4687B0A4B236D08B8801A8002B14BFD5
:100A800002270127FFF7C2FEF3880199B3F5007F23
:100A90001CBF7B01B1FBF3F34FF00A0208BF0B0A46
:100AA0005343B0680A22B3FBF0F305339BB2B3FBA8
:100AB000F2F303F00102C3F34F03991EFD2912D88C
:100AC00012021343F28813432B8472883388134332
:100AD0002343B4882343B48923439BB243F4006384
:100AE000AB8307B0F0BD00220223EAE700230380B6
:100AF00043808380C380038143818381C381072333
:100B00000382704700230222C0E9003382608381A0
:100B10007047038821B19BB243F0400303807047C4
:100B200023F040031B041B0CF8E7838B21B19BB21D
:100B300043F480638383704723F480631B041B0C9E
:100B4000F8E70B0901219940838889B29BB212B161
:100B500019438180704723EA0101FAE783889BB239
:100B600012B119438180704723EA0101FAE78181BC
:100B70007047808980B270474FF6FF6399420388BF
:100B80000BBF23F480739BB21B0443F4807308BF34
:100B90001B0C03807047838821B19BB243F0040390
:100BA0008380704723F004031B041B0CF8E70388C1
:100BB00023F400631B041B0C038003889BB20B43CC
:100BC0000380704703889BB243F4805303807047CF
:100BD000038821B19BB243F400530380704723F490
:100BE00000531B041B0CF8E7012914BF008B808AFB
:100BF00080B27047008A80B270470388B1F5804F99
:100C000015BF23F480439BB21B0443F4804318BFF9
:100C10001B0C038070470389194214BF0120002078
:100C20007047C94389B201817047012310B5848898
:100C3000008901F00F0280B203FA02F21040A4B260
:100C400006D0090903FA01F10C4214BF184600202E
:100C500010BD012301F00F018B40DB439BB20381E8
:100C6000704700BF30B5058C42EA031225F001053C
:100C70002D042D0C0584048B058C24F0F304ADB2F7
:100C80002404240C25F0020514432943A4B241F0A6
:100C900001010483018430BD70B5068C120226F078
:100CA00010063604360C0684058B048C25F440753A
:100CB000A4B22D0524F020042D0D42EA033244EAAB
:100CC00001141543A4B2ADB244F0100405830484AA
:100CD00070BD08B5614B98420BD101214FF4006003
:100CE000FFF7F8FD00214FF40060BDE80840FFF772
:100CF000F1BDB0F1804F09D101210846FFF7F6FDA3
:100D000000210120BDE80840FFF7F0BD544B984298
:100D100006D101210220FFF7E9FD00210220F1E7C1
:100D2000504B984206D101210420FFF7DFFD00213E
:100D30000420E7E74C4B984206D101210820FFF739
:100D4000D5FD00210820DDE7484B984206D101215E
:100D50001020FFF7CBFD00211020D3E7444B984231
:100D600006D101212020FFF7C1FD00212020C9E785
:100D7000404B984208D101214FF40050FFF7AAFDE3
:100D800000214FF40050B0E73B4B984208D10121BD
:100D90004FF40020FFF79EFD00214FF40020A4E750
:100DA000364B984208D101214FF48010FFF792FD95
:100DB00000214FF4801098E7314B984208D101216F
:100DC0004FF40010FFF786FD00214FF400108CE770
:100DD0002C4B984206D101214020FFF787FD0021CE
:100DE00040208FE7284B984206D101218020FFF751
:100DF0007DFD0021802085E7244B984208D1012108
:100E00004FF48070FFF772FD00214FF4807079E796
:100E10001F4B984208D101214FF48030FFF75AFD53
:100E200000214FF4803060E71A4B984208D101212D
:100E30004FF40030FFF74EFD00214FF4003054E72F
:100E4000154B984208D101214FF48020FFF742FD55
:100E500000214FF4802048E708BD00BF002C01406E
:100E60000004004000080040000C0040001000405A
:100E70000014004000340140004C0140005001408B
:100E80000054014000180040001C004000200040B9
:100E9000004001400044014000480140224A0388CC
:100EA00090429BB212D002F5006290420ED0B0F197
:100EB000804F0BD0A2F59832904207D002F58062A5
:100EC000904203D002F58062904203D14A8823F019
:100ED00070031343154A904208D002F58062904295
:100EE0001FBF23F44073CA889BB2134303808B88CF
:100EF00083850B8803850C4B98420FD003F5006364
:100F000098420BD003F54063984207D003F5806305
:100F1000984203D003F58063984201D10B7A03868F
:100F200001238382704700BF002C01400010004065
:100F3000038C70B523F001031B041B0C0384038C8A
:100F40008488028B0D8822F073021204120C4E88E2
:100F50002A4323F002030D891B0435431B0C2B434A
:100F6000144DA4B2A8429BB20FD005F50065A8426B
:100F70000BD005F54065A84207D005F58065A8426D
:100F800003D005F58065A8420ED14D8923F00803F2
:100F90002B438D8823F00403CE892B438D8924F4C1
:100FA000407435432C43A4B284800283CA8882866D
:100FB000038470BD002C0140038C70B523F0100336
:100FC0001B041B0C0384038C8488028B0D8822F481
:100FD000E6421204120C42EA05224E880D8923F0E3
:100FE00020031B0435431B0C43EA0513114DA4B227
:100FF000A84292B29BB203D005F50065A84213D176
:101000004D8923F0800343EA05134FF6BF751D4059
:101010008B88CE8945EA03138D8924F440643543D7
:1010200044EA85049BB2A4B284800283CA88028702
:10103000038470BD002C0140038C70B523F48073D1
:101040001B041B0C0384038C8288848B0D8824F082
:1010500073042404240C4E882C4323F400730D895C
:101060001B0435431B0C43EA0523114D92B2A842E1
:101070009BB203D005F50065A84213D14D8923F436
:10108000006343EA05234FF6FF351D408B88CE8968
:1010900045EA03238D8922F44052354342EA051282
:1010A0009BB292B28280CA8884838287038470BD97
:1010B000002C0140038C70B523F480531B041B0CDF
:1010C0000384038C8488828B0D8822F4E642120408
:1010D000120C42EA05224E880D8923F400531B04AA
:1010E00035431B0C43EA05330B4DA4B2A84292B220
:1010F0009BB203D005F50065A84205D18D8924F483
:10110000804444EA8514A4B284808283CA88A0F80B
:101110004020038470BD00BF002C01404A880B882A
:1011200013438A881343CA8813430A8913434A899D
:1011300013438A8913439BB2A0F8443070474FF69B
:10114000FF73838000230380C38043800372704752
:101150000023038043808380C38003814381838194
:10116000C381704700230122038043808280C380B3
:10117000038170470023038043808380C380038101
:10118000438183817047038821B19BB243F00103FF
:101190000380704723F001031B041B0CF8E7B0F831
:1011A000443039B16FEA43436FEA53439BB2A0F82E
:1011B00044307047C3F30E03F9E783899BB212B141
:1011C00019438181704723EA0101FAE78182704760
:1011D0001143A0F848107047FFF7EFBF038923F0D1
:1011E00007031B041B0C03817047038923F0700362
:1011F0001B041B0C0B43038103899BB243F00703C1
:101200000381704738B50D46602D114604464FF0F6
:1012100001020ED1FFF740FD238923F070031B0468
:101220001B0C2B43238123899BB243F007032381AB
:1012300038BDFFF717FDEFE710B504890A43E4B2A4
:1012400042EA03221443A4B2048110BD10B5FFF793
:10125000F3FF038923F077031B041B0C43F0770390
:10126000038110BD10B5FFF7E7FF03899BB243F47C
:101270008043038110BD018582827047038823F07B
:1012800070031B041B0C0B4303807047038923F07E
:1012900070031B041B0C0B430381704770B5068958
:1012A000048B058C24F4407424F0030425F02205FB
:1012B00026F0070624042D043604240C2D0C42EAE3
:1012C0000312360C44F4807415430E4344F00104B9
:1012D000ADB206810483058470BD038B23F07003D7
:1012E0001B041B0C0B4303837047038B23F4E04365
:1012F0001B041B0C43EA01239BB203837047838BBF
:1013000023F070031B041B0C0B4383837047838BF8
:1013100023F4E0431B041B0C43EA01239BB28383A9
:101320007047038821B19BB243F08003038070476C
:1013300023F080031B041B0CF8E7838821B19BB2C8
:1013400043F004038380704723F004031B041B0C49
:10135000F8E7838821B19BB243F00803838070478C
:1013600023F008031B041B0CF8E7838821B19BB210
:1013700043F001038380704723F001031B041B0C1F
:10138000F8E7038B23F008031B041B0C0B430383B8
:101390007047038B23F400631B041B0C43EA0123F7
:1013A0009BB203837047838B23F008031B041B0C41
:1013B0000B4383837047838B23F400631B041B0C54
:1013C00043EA01239BB283837047038B23F004031A
:1013D0001B041B0C0B4303837047038B23F48063B4
:1013E0001B041B0C43EA01239BB203837047838BCE
:1013F00023F004031B041B0C0B4383837047838B74
:1014000023F480631B041B0C43EA01239BB28383F8
:101410007047038B23F080031B041B0C0B430383D7
:101420007047038BC3F30E0343EA01239BB203838C
:101430007047838B23F080031B041B0C0B438383B7
:101440007047838BC3F30E0343EA01239BB283836C
:101450007047038C23F002031B041B0C0B43038413
:101460007047038C23F008031B041B0C0B430384FD
:101470007047038C23F020031B041B0C43EA011369
:101480009BB203847047038C23F080031B041B0C66
:1014900043EA01139BB203847047038C23F4007367
:1014A0001B041B0C43EA01239BB203847047038C8B
:1014B00023F400631B041B0C43EA01239BB2038447
:1014C0007047038C23F400531B041B0C43EA0133C5
:1014D0009BB20384704710B50124038C8C409BB2EF
:1014E00023EA04030384038C8A401A4392B20284E1
:1014F00010BD10B50424038C8C409BB223EA040376
:101500000384038C8A401A4392B2028410BD30B522
:101510000125048C8D40A4B224EA050400F11803CF
:10152000048421F0080040B94908C85820F0700030
:10153000C850C8580243CA5030BD0439C1F34E01E7
:10154000C858120220F4E040C850C85892B2F1E7DF
:10155000038821B19BB243F002030380704723F05C
:1015600002031B041B0CF8E7038821B19BB243F074
:1015700004030380704723F004031B041B0CF8E7EB
:10158000838821B19BB243F080038380704723F0AE
:1015900080031B041B0CF8E7038823F008031B04DB
:1015A0001B0C038003889BB20B4303807047838826
:1015B00023F070031B041B0C838083889BB20B43B6
:1015C00083807047038923F007031B041B0C0381EE
:1015D00003899BB20B4303817047038923F0800387
:1015E0001B041B0C038103899BB20B4303817047CF
:1015F0008184704781857047818670470187704775
:1016000081877047A0F840107047038B23F00C03CC
:101610001B041B0C0383038B9BB20B430383704798
:10162000028B22F440621204120C0283038B9BB2E1
:1016300043EA01239BB203837047F8B50C464988FF
:10164000A2880029B4F800C00CBF02260026012A97
:101650000CBF022701272389BCF1000F0ED1FFF731
:1016600001FBE188FFF7D1FF31463A462389FFF7B6
:1016700013FBE188BDE8F840FFF7D2BFFFF70CFB92
:10168000E188FFF7CDFF31463A462389FFF7EAFAB2
:10169000E188BDE8F840FFF7B8BF838B23F00C0367
:1016A0001B041B0C8383838B9BB20B438383704788
:1016B000828B22F440621204120C8283838B9BB2D1
:1016C00043EA01239BB283837047F8B50D460E8829
:1016D000AA8849882B8936B9FFF7C4FAE988BDE89A
:1016E000F840FFF792BF042E06D1FFF7D5FAE9883C
:1016F000BDE8F840FFF794BF082EEF88058C21D194
:1017000025F480752D042D0C0584B0F81CC0068CC2
:101710001FFA8CFCB6B22CF0F30C26F4007646EAE5
:10172000012642EA0C0C4CEA031CB6B246F4807661
:101730001FFA8CFC3946A0F81CC00684BDE8F840AE
:10174000FFF7ABBF25F480552D042D0C0584868B47
:10175000058C26F44076ADB24FEA033C360525F4FD
:101760000055360D45EA01354CEA022C46EA0C0CD0
:10177000ADB245F480551FFA8CFC3946A0F81CC068
:101780000584BDE8F840FFF793BF038823F4407356
:101790001B041B0C038003889BB20B430380704720
:1017A000808E80B27047008F80B27047808F80B289
:1017B0007047B0F8400080B27047808C80B27047AC
:1017C000008D80B27047038A194214BF01200020A7
:1017D0007047C94389B201827047038A828911EA3E
:1017E000030092B203D00A4214BF012000207047C8
:1017F000C94389B20182704701F10051013201F5FC
:1018000040515210490002B9704730F8023B013A8A
:1018100021F8043BF7E7002310B501F10051013234
:1018200001F54051521049009A4200D110BD51F8C3
:10183000234020F813400133F6E70000014B186005
:10184000704700BF405C0040014B186880B2704791
:10185000405C0040014B1860704700BF445C004092
:10186000014B186880B27047445C0040014B186817
:1018700080B27047485C0040014B1860704700BF61
:101880004C5C0040014B186880B270474C5C0040D3
:101890004FF6F873014A034013607047505C0040F4
:1018A000014B186880B27047505C0040800000F126
:1018B000804000F5B84001607047800000F1804032
:1018C00000F5B840006880B27047800000F18040A9
:1018D00000F5B840036823F4EC4323F070030B4396
:1018E0009BB203607047800000F1804000F5B84073
:1018F000006800F4C0607047800000F1804000F58F
:10190000B8400368CA0623F4E04323F040039BB2C7
:1019100048BF83F010038A0648BF83F0200343F4D6
:10192000004343F0800303607047800000F1804073
:1019300000F5B8400368CA0423F4804323F0700321
:101940009BB248BF83F480538A0448BF83F400539A
:1019500043F4004343F0800303607047800000F1CC
:10196000804000F5B8400129036805D123F4805375
:101970001B041B0C036070470229FCD123F01003E9
:10198000F6E7800000F1804000F5B840006800F004
:1019900030007047800000F1804000F5B8400068DA
:1019A00000F440507047800000F1804000F5B840DE
:1019B000036823F4E04323F040039BB283F0300339
:1019C00043F4004343F0800303607047800000F15C
:1019D000804000F5B840036823F4804323F070038F
:1019E0009BB283F4405343F4004343F0800303600D
:1019F000704740F60F73800000F1804000F5B8405A
:101A00000268134043F4014343F0800303607047CE
:101A1000800000F1804000F5B840036823F4F873BB
:101A20001B051B0D43F4004343F080030360704724
:101A3000FFF7EEBFFFF7DDBFFFF7DBBFFFF7E8BF44
:101A4000800000F1804000F5B840006800F03000F0
:101A5000A0F11003584258417047800000F18040C7
:101A600000F5B840006800F44050A0F5805358429B
:101A700058417047800000F1804000F5B84003688D
:101A800023F0F0031B051B0D43F080030360704738
:101A9000800000F1804000F5B840036823F0F003B7
:101AA0001B051B0D43F4004303607047800000F1E9
:101AB000804000F5B840036823F0F0031B051B0DC0
:101AC00043F4404343F0800303607047800000F11B
:101AD000804000F5B840036823F0F0031B051B0DA0
:101AE00043F4004343F0C00303607047800000F1FB
:101AF000804000F5B84003685B0409D5036823F013
:101B0000F0031B051B0D43F4404343F080030360C7
:101B10007047800000F1804000F5B84003685B0624
:101B200009D5036823F0F0031B051B0D43F40043A4
:101B300043F0C00303607047800000F1804000F56F
:101B4000B840036823F0F0031B051B0D194341F453
:101B5000004141F0800101607047800000F1804049
:101B600000F5B840006800F00F007047064B4908C8
:101B70001B6849009BB203EBC00000F1005000F568
:101B80004050400001607047505C0040054B4908E0
:101B90001B6849009BB203EBC000034B03445B008E
:101BA00019607047505C004004300020054B1B68F2
:101BB0009BB203EBC00000F1005000F54050400024
:101BC00000887047505C0040044B1B689BB203EBDD
:101BD000C000034B03445B0018887047505C004012
:101BE00004300020044B1B689BB203EBC000034B86
:101BF00003445B0019607047505C004002300020D5
:101C00003E290AD94B09C90604BF03F1FF339BB231
:101C10009B0243F40043036070474B08CA0748BF68
:101C200001339B02F7E70E4B0E4A1B683E299BB21D
:101C300003EBC00002444FEA42020AD94B09C8062E
:101C400004BF03F1FF339BB29B0243F400431360D4
:101C500070474B08C90748BF01339B02F7E700BF35
:101C6000505C004006300020054B1B689BB203EB24
:101C7000C000044B03445B001868C0F309007047C0
:101C8000505C004002300020054B1B689BB203EB08
:101C9000C000044B03445B001868C0F309007047A0
:101CA000505C00400630002010B50C4C49082368F9
:101CB00049009BB203EBC00303F1005303F540530B
:101CC0005B001960236852089BB203EBC000044B11
:101CD000520003445B001A6010BD00BF505C00401E
:101CE00004300020FFF742BFFFF750BFFFF75EBF91
:101CF000FFF76ABF012930B52AD1254D25492B6848
:101D0000C4009BB203EBC00001443E2A4FEA4101EC
:101D100018D95309D00604BF03F1FF339BB29B02CD
:101D200043F400430B6029681B4B89B221440B44E8
:101D30003E2A4FEA43011FD85308D20748BF013358
:101D40009B0222E05308D00748BF01339B02E9E71A
:101D5000022910D10E4C0F4B216889B201EBC00152
:101D60000B445B001A6023689BB203EBC0000A4B74
:101D700003445B001A6030BD5309D00604BF03F171
:101D8000FF339BB29B0243F400430B60F3E700BFB9
:101D9000505C0040023000200630002001291BD199
:101DA000134B14491B683E2A9BB203EBC00001444D
:101DB0004FEA41010AD95309D00604BF03F1FF33AA
:101DC0009BB29B0243F400430B6070475308D20759
:101DD00048BF01339B02F7E7022908D1044B1B6877
:101DE0009BB203EBC000034B03445B001A607047D7
:101DF000505C00400230002001291BD1134B1449D4
:101E00001B683E2A9BB203EBC00001444FEA41012C
:101E10000AD95309D00604BF03F1FF339BB29B02DA
:101E200043F400430B6070475308D20748BF0133A7
:101E30009B02F7E7022908D1044B1B689BB203EB16
:101E4000C000034B03445B001A607047505C0040C5
:101E500006300020FFF708BFFFF716BF0E49C2008B
:101E60000B689BB203EBC0000C4B03445B001B6888
:101E700013F47C4F0DD10B689BB21A44084B1344EA
:101E80005B001B68C3F30903002B14BF0220002072
:101E900070470120704700BF505C004006300020B2
:101EA0000230002001290FD1800000F1804000F5B0
:101EB000B840036823F0F0031B051B0D43F40043F7
:101EC00043F0C003036070470229FCD1800000F199
:101ED000804000F5B840036823F0F0031B051B0D9C
:101EE00043F4404343F08003ECE741EA00207047AD
:101EF000C3B2000A40EA0320704700BF8279154B45
:101F000083F830200268DA62002283F831200279F7
:101F1000012A0CD0022A0ED04279012A0DD0022AC1
:101F200013D008220B4883F8302007F0ADBA6022A6
:101F300083F83120F0E74022FAE793F8312042F0AD
:101F4000030283F831200922ECE793F8312042F0B4
:101F50000202F6E7C80300202DE9F0414FF4A0602B
:101F60008EB0554CFEF71AF9544B68460093FEF7B5
:101F70001FF9256F0020A8470120A8470220A84785
:101F80004FF40042D4F8887011460020B847002072
:101F9000A847A66F01220F210020B0472022012070
:101FA0001146B8470120A847012205211046B04735
:101FB000002220210120B8474FF480420020114622
:101FC000B8470020A84701220E210020B0473C4B13
:101FD00006AFD3F848329847D4F8343100209847F8
:101FE0000022D4F83C31104636499847FF22082198
:101FF000D4F84031002098470821D4F84831002017
:102000009847314B314800F11402586004389A6007
:1020100007F0FDF9636920213846984702462C4BAA
:102020000DF1040C03F11008E646186859680833EE
:10203000AEE803004345F446F6D11B78182A8EF823
:10204000003028BF1822002322489A4221D80220BB
:10205000A847D4F884504FF400510220A847012229
:102060000D210220B0474FF400510220A8471A4B1F
:1020700064201B68D3F84C3298474FF40051D4F8D1
:10208000803002209847154808F024F90EB0BDE8CA
:10209000F081F95C0DF1380E01F00F0CF4440EEBF9
:1020A00011111CF834CC11F8341C80F802C0013333
:1020B00000F8041FC9E700BF80D800082500000110
:1020C00018D600084054890014000020CC030020DA
:1020D000A0DD000858000020C40300208C00002070
:1020E00008B5064807F0EEF9054B0020D3F8E030BC
:1020F0009847BDE80840034807F085BDC8030020A5
:1021000018D600088C0000202DE9F0410E4624214D
:10211000436890F84E20054601FB0232931993F96B
:102120001130002B4BDB0C21D26801FB03235B68D1
:10213000002B44D0234C9B782268002ABFBF012289
:1021400062600022A2601BB103693046DB6F9847D2
:102150002B693046D3F89C3098470746A1682B6915
:10216000DFF864800246D3F8A030304641449847F7
:102170002B693046D3F8A430984717B90020BDE842
:10218000F081A36823B998F800300F2B0CD8276092
:10219000A0683844A0602368A2689A4222BF2368DE
:1021A00043F000432360E9E7203B5F2B9FBF98F893
:1021B000013098F8022003EB02232360E8E76FF078
:1021C0000500DCE7800C0020901C00202DE9F04188
:1021D000234C0D462368002B3CDA4A6891F84E30B8
:1021E000242101FB03230C22DB684FF4804102FB16
:1021F000003000221B4BD0F80480D3F888701046C2
:10220000B8472168184889B20AF0A8FAE36823B3EE
:10221000E36843F00043E3600026A660E368B3424E
:1022200013DA98F80110104A05EB41135A66E26878
:10223000284692B29A66E2689E67C2F3004283F82B
:10224000722007F05EFE2660E6604FF480420020B8
:102250001146B8470020BDE8F0812360DCE700BFED
:10226000800C002080D80008901C002038B54A68F7
:1022700091F84E300C46242101FB03230C22DB682D
:1022800002FB00304568114808F0B0FB2046104AB8
:10229000297807F0AFFC10B16FF0050038BDAB78BE
:1022A0003BB923692878D3F8A43098470028F5D0A3
:1022B000F2E7236968785B6C98470028ECD12369C2
:1022C00028785B6F98470028EBD0E5E79014002052
:1022D0000921000803461A46117801330029FAD172
:1022E000101A7047431E013913F8010F11F8012F1E
:1022F00010B10AB19042F7D0801A70470B7843B101
:102300000346013911F8012F03F8012B002AF9D1F6
:102310001A70704710B50B7863B103460139024457
:10232000934205D011F8014F03F8014B002CF7D16F
:1023300000221A7010BD0346C9B2184613F8012BCB
:1023400012B18A42F9D17047002918BF00207047A6
:102350000346087830B520B1184613F8012B0AB9A6
:10236000104630BD4C1E14F8012F002AF9D010F889
:10237000015B9542F7D0EFE7024610B5147813469B
:102380000132002CFAD1013B11F8012B03F8012F87
:10239000002AF9D110BD30B5044623461D7801341A
:1023A000002DFAD1013B0A44914205D011F8014BAE
:1023B00003F8014F002CF7D130BD10B50446FFF7EC
:1023C00089FF01300AF022FA2146BDE81040FFF7EC
:1023D00095BF10B5431E0A44914200D110BD11F8BB
:1023E000014B03F8014FF7E710B5431E0139002AEE
:1023F00001DC002006E013F8010F11F8014FA042A4
:1024000001D0001B10BD013AF1E7034610B50244AC
:10241000D41A002C00DC10BD03F8011BF8E7000003
:10242000044B0246196809B9034919601868024447
:102430001A607047903C0020044000204FF0FF30AD
:102440007047002070474FF4005300204B607047E6
:1024500001207047002070470020704710467047E9
:10246000014BD3F80C33184780D80008024BC0F357
:102470000E00D3F81033184780D80008024BC0F381
:102480000E00D3F81433184780D80008014BD3F856
:10249000F832184780D80008014BD3F8FC321847AF
:1024A00080D80008014BD3F80033184780D80008C3
:1024B000014BD3F80433184780D80008014BD3F8F8
:1024C0000833184780D80008002070470020704764
:1024D00000207047002330B51D4600F0805454EAB8
:1024E00005026BD100F0806454EA050268D100F067
:1024F000007454EA050265D100F0807454EA0502C4
:1025000062D100F4000454EA05025FD100F48004B3
:1025100054EA05025CD100F4001454EA050259D1D2
:1025200000F4002454EA050256D100F4801454EA61
:10253000050253D100F0006454EA050350D100F4C1
:10254000802454EA05024DD100F4003454EA050217
:102550004AD100F4803454EA050247D100F4807473
:1025600054EA050244D100F0800454EA050241D146
:1025700000F0400454EA05023ED100F0200454EA81
:1025800005023BD100F0100454EA050238D100F0F6
:10259000080454EA050235D100F0040454EA0503A6
:1025A00032D12B4600F0020213432FD12B4600F00C
:1025B00001021343164808BF284630BD1548FCE702
:1025C0001548FAE71548F8E71548F6E71548F4E71F
:1025D0001548F2E71548F0E71548EEE71548ECE72F
:1025E0001548EAE71548E8E71548E6E71548E4E73F
:1025F0001548E2E71548E0E71548DEE71548DCE74F
:102600001548DAE71548D8E71548D6E71548D4E75E
:102610002ADE0008B5DD0008B9DD0008BDDD0008D0
:10262000C0DD0008C5DD0008C9DD0008D1DD0008F7
:10263000DDDD0008E8DD0008EBDD0008F4DD000862
:10264000FCDD000804DE000809DE00080FDE0008DB
:1026500013DE000817DE00081DDE000821DE00087A
:10266000B1DD000826DE0008072970B502F00F036F
:102670004FF00F0411D805688E00B44025EA040419
:10268000B34023430360940606D5012303FA01F106
:10269000D3064CBF0161416170BDA1F108054668D8
:1026A000AD00AC4026EA0404AB4023434360EAE7B4
:1026B00008B1024B03600020704700BF18D6000825
:1026C000003818BF012040427047003818BF012071
:1026D000404270472DE9F843089D0C4616461F46B8
:1026E000002840F0E08021EA020201EA060322F419
:1026F0006B7223F4577322F0030223F00303134396
:1027000040F0D480E10717D5F20707F0010340F14C
:102710009B80DFF8A08105F00109002B00F0848088
:1027200007220B214046FFF79FFF4FF40063B9F1EA
:10273000000F76D0C8F81030A0070FD5B10740F1D0
:102740008B804FF480625B4B15F0020F14BF1A614F
:102750005A6103220A215748FFF786FFA0050ED5CC
:10276000B10540F182804022524B15F4007F14BF26
:102770001A615A61032206214E48FFF775FFE005F2
:102780000DD5F1057AD510224A4B15F4807F14BF80
:102790001A615A61042103224648FFF765FF620768
:1027A0000ED573076DD54FF40072434B15F0040F2F
:1027B00014BF1A615A61032209213F48FFF754FFF1
:1027C00022070ED5330765D54FF480623A4B15F0DA
:1027D000080F14BF1A615A6103220A213648FFF715
:1027E00043FFE10604D503220D213248FFF73CFFE9
:1027F000620604D503220F212E48FFF735FFA306FA
:1028000004D504220E212B48FFF72EFF14F0800080
:1028100005D0294804220821FFF726FF0020BDE843
:10282000F883C8F8143087E74FF40063B9F1000F5C
:1028300007D0C8F8103003220B211E48FFF714FF01
:102840007AE7C8F81430F6E723B1EB074CBF38221B
:102850002822F1E70422EFE7BA0704D5AB074CBF03
:102860003822282276E7042274E7BA0504D5AB059E
:102870004CBF382228227EE704227CE7042211463E
:102880008AE7780704D569074CBF3822282293E7E6
:10289000042291E73E0704D528074CBF382228229E
:1028A0009BE7042299E74FF0FF30B8E76FF006008E
:1028B000B5E700BF000C014000080140002830D1FE
:1028C000CB0742BF4FF40062174B5A61880742BFE3
:1028D0004FF48062144B5A618A0542BF4022124B6A
:1028E0005A61CB0542BF10220F4B5A61480742BFC5
:1028F0004FF400720D4B5A610A0742BF4FF48062D9
:102900000A4B5A61CB0642BF4FF40052064B5A6144
:1029100011F0400007D04FF40042034B00205A61F1
:1029200070474FF0FF307047000C01400008014035
:10293000002830D1CB0742BF4FF40062174B1A6119
:10294000880742BF4FF48062144B1A618A0542BF68
:102950004022124B1A61CB0542BF10220F4B1A6165
:10296000480742BF4FF400720D4B1A610A0742BF7D
:102970004FF480620A4B1A61CB0642BF4FF40052FB
:10298000064B1A6111F0400007D04FF40042034B90
:1029900000201A6170474FF0FF307047000C014073
:1029A00000080140002856D121F47F7323F003036F
:1029B000002B53D1CB0707D54FF40060294B12F001
:1029C000010F14BF18615861880707D54FF4806064
:1029D000244B12F0020F14BF186158618B0506D505
:1029E0004020204B12F4007F14BF18615861C805C5
:1029F00006D510201B4B12F4807F14BF186158615C
:102A00004B0707D54FF40070174B12F0040F14BF9B
:102A100018615861080707D54FF48060124B12F017
:102A2000080F14BF18615861CB0607D54FF400504A
:102A30000C4B12F0100F14BF1861586111F04000D8
:102A40000ED012F040004FF40042064B1ABF002097
:102A50001A615A6170474FF0FF3070476FF00600FF
:102A6000704700BF000C014000080140002848D119
:102A700021F46B7323F00303002B45D111F0010304
:102A80001EBF234B9B68C3F3C023880705D520488E
:102A90008068400548BF43F00203880505D51C48FF
:102AA0008068400648BF43F40073C80505D5184840
:102AB0008068400648BF43F48073480705D5154831
:102AC0008068800548BF43F00403080705D5114816
:102AD0008068400548BF43F00803880605D50C48C8
:102AE0008068400448BF43F02003080605D5094923
:102AF0008968C90548BF43F0800302B11360002014
:102B000070474FF0FF3070476FF00600704700BF0E
:102B1000000C01400008014082B020B9044BDB6D7D
:102B2000019302B018474FF0FF3002B0704700BF6A
:102B300080D8000882B020B9044B1B6E019302B00C
:102B400018474FF0FF3002B0704700BF80D8000830
:102B500082B020B9044B5B6E019302B018474FF06E
:102B6000FF3002B0704700BF80D8000882B020B9A3
:102B7000044B9B6E019302B018474FF0FF3002B038
:102B8000704700BF80D8000882B020B9044BDB6ECC
:102B9000019302B018474FF0FF3002B0704700BFFA
:102BA00080D8000810B9034806F031BC4FF0FF3060
:102BB000704700BFC803002010B9034806F04ABCA4
:102BC0004FF0FF30704700BFC803002038B90548F8
:102BD00080F83020C16280F8313006F055BC4FF0EB
:102BE000FF307047C803002007B548B959B1CDE997
:102BF00000120648694606F062FC03B05DF804FB6B
:102C00004FF0FF30F9E76FF00800F6E7C803002047
:102C100007B548B959B1CDE900120648694606F032
:102C20004BFC03B05DF804FB4FF0FF30F9E76FF0A9
:102C30000800F6E7C803002038B50D46044690B9F1
:102C4000A1B10C4807F0E4FD28600A4807F0D7FD61
:102C50006860094807F0DCFDA860074807F0CFFD71
:102C6000E860204638BD4FF0FF30FBE76FF008000A
:102C7000F8E700BFCC030020E003002010B90348B0
:102C800006F020BC4FF0FF30704700BFC8030020A3
:102C9000014BD3F85032184718D600080A4A037877
:102CA000127852B103F080015B00DBB203704FF485
:102CB0000042064B29B11A61704703F001015B081D
:102CC000F4E75A61704700BF943C0020000C0140BB
:102CD0000A4B99680A4B49041A78037809D522B13E
:102CE0005B0043F00103037070475B0863F07F03F0
:102CF000F9E70AB15B00F6E75B08F4E7000C014076
:102D0000943C0020F0B5244F002308253C4685B0B4
:102D1000224E8DF807008DF80F307B78D80703D44A
:102D20000DF10700FFF7BAFF2079FFF7B1FF4FF46D
:102D30000052637813F0020F14BF72613261D90739
:102D400003D40DF10F00FFF7C3FF2079FFF7A0FFB9
:102D50006378DA0703D50DF10700FFF79FFF2079AD
:102D6000FFF796FF4FF40052637813F0020F14BF81
:102D700032617261DB0703D50DF10F00FFF7A8FF89
:102D80002079013DFFF784FF15F0FF05C5D19DF8BF
:102D90000F0005B0F0BD00BF943C0020000C0140C6
:102DA000003818BF01204042704782B030B901207E
:102DB000044BD3F8F830019302B018474FF0FF30BE
:102DC00002B0704780D800082DE9F743DFF8BC80D7
:102DD00007460E4601206946D8F8FC30154698474C
:102DE0000446002845D14FF47A79019BB3FBF9F3EF
:102DF000002F41D1B342224F2DD90120D8F8F8300D
:102E000009FB06F638729847EB431E494FF400520F
:102E1000B1FBF6F6C3F3C0133B7005F003037B7000
:102E2000194B15F0020F7E604FF00D0114BF1A61AF
:102E30005A6115480322FFF717FC03220F2112489D
:102E4000FFF712FC04220E210F48FFF70DFC20466D
:102E500003B0BDE8F083D8F8F43038720120984709
:102E600031460120D8F8083145F00402984704465D
:102E7000EDE76FF00504EAE74FF0FF34E7E700BF46
:102E8000943C002090D00300000C014080D8000842
:102E900082B030B90120054BD3F80C31019302B058
:102EA00018474FF0FF3002B0704700BF80D80008CD
:102EB00082B030B90120054BD3F81031019302B034
:102EC00018474FF0FF3002B0704700BF80D80008AD
:102ED000F8B50D4614461E4670BB1948077A2FB345
:102EE00089B962B11644A6420BD0FF20FFF70AFF52
:102EF00004F8010BF7E7FF20FFF704FF0134B442A9
:102F0000F9D10020F8BD0E446AB1541EB542F8D084
:102F100015F8010BFFF7F6FE04F8010FF6E715F8B8
:102F2000010BFFF7EFFEB542F9D1EAE7054C0120AE
:102F3000D4F82441A047E4E74FF0FF30E2E700BFB8
:102F4000943C002080D80008F8B5054640F2E934EA
:102F5000074E084F013C03D0B36815B1DA0502D51E
:102F6000F8BDDB05FCD5D7F8503201209847F1E7D2
:102F70000008014018D6000810B5054B1A89D20781
:102F8000FCD59A89034CA181988190B210BD00BFF5
:102F900000380040003001402DE9F04106460C4663
:102FA0000D460746DFF83480072D0DD8E308C3EB44
:102FB000431104EBC10414F0FF041FBF074A14714E
:102FC000F35C5371BDE8F0810020D8F8003017F8A9
:102FD000011B083D9847EDB2E6E700BFA03C00208A
:102FE0002DE9F04F1C4689B09DF854309DF84C6097
:102FF000BDF8487005933319934603F00702DB08C8
:103000000092013317F0070282469DF85080049128
:10301000069365D001239340013BDBB2AA4D029396
:103020002979B9B1601808286B795EDD0BFA01F1D6
:103030001943C9B22A680020697190472B79C3F1FE
:103040000802083B4BFA02FB1C445FFA8BFBE4B21C
:1030500000232B7100233A46A1461D46019303939A
:10306000F31913EB080348D1C0210598964D41FA96
:1030700000F700F0070005282C68BFB200F2288195
:10308000394618460392A047039AC6B2BAF1000F18
:103090001CD0DAB1019B0699591A89B2002900F0B7
:1030A0002D81009B481E1AF80040C3F1080306FA60
:1030B00003F32343009CDBB294420AF8003080F013
:1030C0001881029B264133400AF80130059BDC0839
:1030D000013CE4B2FF2C40F0188109B0BDE8F08F4C
:1030E000002F14BFFF23002398E703FA04F141EAFD
:1030F0000B0B5FFA8BFBC4B2AAE7B6B12146002CDA
:103100007AD0C4F10803B342D5BF70486F4BC55C99
:103110009D5D05FA09F5EDB234440E44082EE4B283
:1031200070DC082C00F0FB80A1460FB3072C00F2E6
:10313000F180049BA3B1039B002B73D0DDE9031343
:103140000B4413F8015C1FFA89F1C9F10803B94275
:1031500045FA03F35ED3DDB2039B01339BB20393C5
:10316000E319082B63DCDCB2082C00F0D580A14603
:10317000B8F1000F61D146460027B846F31913EBAA
:10318000080F07D10121013C01FA04F444EA0B0BBA
:103190005FFA8BFB4C4B594628461B6807929847B1
:1031A000079ABAF1000F24D0FAB1019B06998B421D
:1031B0001BD35C1A009BA4B2C0B2C3F1080E002C52
:1031C00070D004F1FF3C1AF80C1000FA0EF30B4318
:1031D0005FFA83FB009BBDF8001093425BD2521A4A
:1031E00092B291420AF80CB05CD3019B01339BB2BE
:1031F00001930024A34633E7072E96BF334BFF25E8
:103200009D5D89E7083CE6B2AFB90824B8F1000F2C
:10321000B2D015E0DDE903010D5C05FA09F51D43A7
:10322000EDB299E7049B1B7803FA09F3F7E7002650
:10323000083F3C44A7B20824A0E7072C02D9002687
:1032400000279BE7BCB1C4F108014145D4BF1F482A
:103250001E496BB2D4BF455C11F8085005FA09F558
:103260001D43EDB208EB0403082B0CDC0026DCB296
:103270003746B04682E7B8F1070F96BF134BFF25DC
:1032800013F80850EEE70026A8F108084444374632
:1032900004F0FF08CFE7029B0BEA03030AF80C30A7
:1032A0000022A2E7009B724540FA03F0C0B205DDA0
:1032B000083B1A440AF8040092B296E7029B1840B1
:1032C0000AF80400ECE700BFA03C0020FC0300204B
:1032D0000492059A0393C2F10800814089B218460E
:1032E000A047039B39462C68C6B21846A047049AEB
:1032F000CCE6029A13400AF80030E7E6009B1E4134
:10330000029B33408AF80030E0E600212B68084633
:103310009847DDE6002631E74FF000098FE74FF0D0
:1033200000094E4670E710B50C48FCF78FFF0C48BB
:10333000FCF78CFF0B48FCF789FF00210120FDF70B
:10334000A5FA4FF0FF32084B0120DA60074BD3F8A3
:10335000F840A0471020A047002010BD44000240C4
:103360005800024030000240FC03002080D80008D2
:103370002DE9F043544D91B0064689460120D5F819
:10338000FC4003A9A047A84628B16FF006073846BD
:1033900011B0BDE8F083102001A9A047074600281E
:1033A000F3D1049C019BA342EFD3DDE902329342A7
:1033B000EBD89C4238BF1C464FF47A73B4FBF3F44D
:1033C000FFF7B1FFB44227D80120D5F8F450A84741
:1033D0001020A8473D4BB4423D4DDE603AD88722CD
:1033E00031460120D8F80881C0474FF47A7301991B
:1033F0008322B1FBF3F11020C047B9F1000F35D1A2
:103400007F22344BB4429A814FF00002A3F57843F7
:103410009A8128D9304B27E04FF400532F4D0322D7
:103420002B6128460D21FFF71FF9284604220E21A3
:10343000FFF71AF9284603220F21FFF715F928464E
:1034400003220421FFF710F9042208212448FFF782
:103450000BF9BFE716B90120FFF776FDB9F1000FB0
:10346000CED0204B2DE0204B2B6090E70121084669
:10347000FDF70CFA00231D4A1D48CDE905238022E3
:10348000CDE90A234FF4405205A9CDE90E23CDE939
:103490000733CDE90C330993FCF750FF154B164861
:1034A0000593102305A90793FCF748FF0122134851
:1034B0001146FDF753FB012202210648FDF74EFBA2
:1034C0000F4BAB6063E700BF80D80008FC0300200F
:1034D000A03C0020003001404D350008000C0140A8
:1034E00000080140C5350008792F00080C3800405D
:1034F000440002400C3001403000024000380040DF
:103500003D3600080E4B0F49DA68C86812F4005FB8
:1035100082B04FF400520CD05A6170B14FF4FA737C
:1035200093FBF0F0084B80B2D3F85032019302B015
:1035300018471A610028F1D1012002B004E500BF4C
:10354000000C0140FC03002018D600082DE9F84FBC
:10355000002307460E4608254FF400494FF0100A95
:10356000164CDFF85C80B4F80CB0A381A389F9078E
:103570004FEA5303A3814CBFC8F81090C8F81490C9
:10358000F2074CBFC8F810A0C8F814A0FFF7BAFFA4
:10359000FFF7B8FFD8F80830013D5B0448BFA389A6
:1035A0004FEA570744BF43F08003A38115F0FF059E
:1035B0004FEA5606DAD15846BDE8F88FA03C002005
:1035C000000C01402DE9F84F8A46934681461E467D
:1035D000002501214FF40042174F4D4501D1BDE8B0
:1035E000F88F05F0070301FA03F44FEAD508E4B2B7
:1035F0000BB906F808301AF8083001351C4214BF20
:103600003A617A611BF808301C424FF0100314BF76
:103610003B617B61FFF776FFFFF774FFBB68012119
:1036200013F4804F18BF16F808304FF400421CBF47
:103630001C4306F80840D0E7000C01402DE9F84390
:103640000F46C0F3CF01904699460E46002935D06B
:103650003E4B3F4C5960C3F80C901A683D4D42F008
:1036600001021A606160C4F80C80226842F0010215
:1036700022600022B5F808C01CF0020FFAD017F83B
:1036800002C00132A5F80CC01FFA82FC8C45F1D3B0
:10369000314A11461568AD04FCD54FF4005555600C
:1036A0000A689205FCD54FF400724A601A6822F04D
:1036B00001021A60236823F00103236010F007055C
:1036C00042D000212548FDF724FA4FF40053244C42
:1036D0000322236120460D21FEF7C6FF2046042267
:1036E0000E21FEF7C1FF204603220F21FEF7BCFF8B
:1036F000204603220421FEF7B7FF09EB060308EB7F
:1037000006022846B919FFF75DFF01211348FDF7AE
:1037100000FA20460B220D21FEF7A6FF20460B22C1
:103720000E21FEF7A1FF20460B220F21FEF79CFF82
:1037300020460B220321FEF797FF2046BDE8F84301
:103740000B220421FEF790BFBDE8F883440002403D
:1037500030000240003800400000024000300140CC
:10376000000C0140003818BF01204042704700B9EA
:10377000D9E54FF0FF30704703460846194603B9B4
:10378000F6E54FF0FF30704730B548B94D784C88BA
:103790008A88054B0978C3E90642C3E9041530BDA0
:1037A0004FF0FF30FBE700BFA03C0020034610B500
:1037B0000846144619464BB9FFF7DAFD18B92146F9
:1037C000FFF7E2FF08B16FF0050010BD4FF0FF30CA
:1037D000FBE710B50446084624B9D1B2FFF7DCFB7D
:1037E000204610BD4FF0FF30FBE730B50C4689B0E6
:1037F000014698B920226846FEF707FE14B9204614
:1038000009B030BDB4F5807F8CBF4FF48075E5B250
:103810006846E9B2FFF7C0FB641BEFE74FF0FF30EB
:10382000EEE718B9034BC3E9082170474FF0FF30AA
:10383000704700BFA03C00202DE9F04FD71D87B096
:103840004FEAE7090D4690469A469DF840B0FF08BA
:1038500000285BD12F4CB9F1040FC4F8A8001ADD81
:103860000B68C4F8A8300021666AADF81610C6B916
:103870002E46237F03220293237E3146CDE9008327
:1038800030460423CDF80CA0FFF7AAFBBBF1000FD4
:103890001DD1002012E04A4604F1A800FEF799FD70
:1038A000E1E70DF11603CDE9017308461A4BD4F890
:1038B000A8200095B04720B16FF0050007B0BDE823
:1038C000F08FBDF81630002BD2D0134ED1E7002177
:1038D000D4F82080ADF81610B8F1000F05D14A4693
:1038E00031462846FEF775FDD3E70DF11603CDE905
:1038F000017308462B46D4F8A8200096C04700283C
:10390000DAD1BDF81630002BC3D1E8E74FF0FF3015
:10391000D4E700BFA03C0020C83C00202DE9F04FB8
:10392000D71D87B04FEAE70A0D46904699469DF8A5
:1039300040B0FF0800284ED1284CADF81600666A4A
:1039400096B92E46237D01220293237C3146CDE990
:10395000008330460323CDF80C90FFF741FBBBF109
:10396000000F19D100200DE00DF11603CDE9017310
:103970000091D4F8A820012104F12803B04720B118
:103980006FF0050007B0BDE8F08FBDF81630002BD2
:10399000D7D004F12806D5E70020D4F82080ADF870
:1039A0001600B8F1000F05D1524631462846FEF701
:1039B00010FDD7E70DF11603CDE9017301212B4668
:1039C000D4F8A8200096C0470028D9D1BDF81630F9
:1039D000002BC7D1E8E74FF0FF30D3E7A03C002031
:1039E000003818BF012040427047FFF7C0BEFFF704
:1039F000C3BEF8B50E46044660B14FF0FF30F8BDC7
:103A0000315D00203B6898470134A3B29D42F7D84E
:103A10000020F4E7014F95B2F7E700BFA03C00207B
:103A200070B50C4628B9074E95B2013C04D200206F
:103A300001E04FF0FF3070BD294633680020984701
:103A4000F3E700BFA03C00202DE9F047D41D0E464F
:103A50001D46E408002833D1002934D01B4F3BB168
:103A60003B689DF82010307898470125013CA4B2AE
:103A70004FF6FF7A013CA4B2013CA4B25445A846DB
:103A80003B68705D06EB05090FD19DF8241098473F
:103A90000DB109F8010C00203B689DF828109847EB
:103AA00089F800000020BDE8F087002198472DB17B
:103AB0000135B044ADB208F8010CDDE70125DBE7C4
:103AC0004FF0FF30EFE76FF00800ECE7A03C00207C
:103AD000003818BF012040427047FFF748BE034638
:103AE00008460BB9012143E44FF0FF307047F8B5A9
:103AF000044640B951B14AB143B1064885680698B9
:103B0000A8472046F8BD4FF0FF30FBE76FF00800F4
:103B1000F8E700BFA03C0020F0B500244FF4005CA3
:103B200022464FF0010E104EA3B28B4202D302F098
:103B30000100F0BDC6F810C0C6F814C0B568DF08B3
:103B400003F0070315F0400F0EFA03F3C55D5BB2F7
:103B50001BBF2B43013225EA0303C35514BFD2B266
:103B6000C3550134E0E700BF000C0140F0B500246C
:103B7000102723464FF4005C0C4DA2B2914202D8AC
:103B800003F00100F0BDD608865D02F0070246FA98
:103B900002F2D20745BF01332F616F61DBB2C5F876
:103BA00010C00134C5F814C0E7E700BF000C0140A5
:103BB0002DE9F74F4FF0000881460D464446DFF8E7
:103BC00078A01B4EA8451FFA88FB04D104F0010021
:103BD00003B0BDE8F08F4FF40057164ACAF81070D2
:103BE000D2F850323088019398470123CAF81470F4
:103BF000DAF808204FEADB010BF0070B12F0400F58
:103C000003FA0BF319F801205BB215BF134322EA44
:103C1000030309F8013009F8013018BF0134308876
:103C2000019B18BFE4B208F101089847CAE700BF3A
:103C30004C3D002018D60008000C01402DE9F74F3C
:103C4000002580460F462C46184EDFF864A0DFF8AA
:103C50006490BD42ABB204D104F0010003B0BDE8F2
:103C6000F08FDA0818F8022003F0070342FA03F392
:103C700013F0010F4FF010034FF4005B14BF3361DA
:103C80007361DAF8503218BF0134B9F8000018BF78
:103C9000E4B201939847B9F80000019BC6F810B050
:103CA00098470135C6F814B0D3E700BF000C0140B7
:103CB00018D600084C3D0020002307B50193044BA3
:103CC00008215B6801A8984703B05DF804FB00BFBA
:103CD0004C3D00202DE9F04F4FF010080E46002714
:103CE000C34687B0434D8DF8070000F0040A424CEC
:103CF000032204213F48C5F810B0FEF7B5FC636805
:103D000008210DF10700984704223A481146FEF7B2
:103D1000ABFC3368DFF8E4900593BAF1000F3ED0B6
:103D20000321A36803A898472021A36805A8984702
:103D30000121A3688DF80B0004A898479DF80B306B
:103D400099F8001018448DF80B00A36804A8984750
:103D5000032204212846C5F81080FEF785FCFFF7F2
:103D6000ABFF042228461146FEF77EFCBAF1000F95
:103D700001D0059B3360039800F0070002280390F0
:103D80002BD0042833D001282ED19DF80B3013F00E
:103D9000010F14BF1120012007B0BDE8F08F99F882
:103DA0000010A368033103A8984703220421284682
:103DB000C5F81080FEF758FC2021636805A89847D5
:103DC00063688DF80B0001210DF10B0098479DF8F9
:103DD0000B3018448DF80B00C1E7A2890137BBB244
:103DE0009A4284D84220D7E740F02000D4E78420CC
:103DF000D2E700BF000C01404C3D00200C04002025
:103E0000042210B5074C11462046FEF72DFC4FF456
:103E10000053204623610322BDE810400D21FEF728
:103E200023BC00BF000C0140042210B5054C114614
:103E30002046FEF719FC2046BDE8104004220D2163
:103E4000FEF712BC000C0140064B20B9064A9A60EE
:103E5000064A5A607047064A01389A60054A188037
:103E60005A6070474C3D0020193B00086D3B00082C
:103E7000B13B00083D3C00080E289CBF014B187068
:103E8000704700BF0C040020014B9881704700BFB1
:103E90004C3D0020003818BF01204042704710B54B
:103EA000044618B9FFF7C0FF204610BD4FF0FF30A1
:103EB000FBE738B504461D46084654B9FFF7DCFF5A
:103EC000054B28469A81FFF7BFFFFFF799FF204671
:103ED00038BD4FF0FF30FBE74C3D0020F8B50D46F4
:103EE00017460446A0B9B1B110230C4E0322042199
:103EF00030463361FEF7B8FB094B39465B6828460C
:103F00009847042230461146FEF7AEFB2046F8BD26
:103F10004FF0FF30FBE76FF00800F8E7000C0140BE
:103F20004C3D00200B4610B51146044630B943B154
:103F3000054A184692689047204610BD4FF0FF3062
:103F4000FBE76FF00800F8E74C3D002038B50C4661
:103F50001D461146D0B9E2B1200900EBD400C4F3EC
:103F60004003184400EB940000F0010044EA4010C4
:103F700000F0BF0040F08100FFF7ACFE05B12870F3
:103F800001280CBF00206FF0050038BD4FF0FF3056
:103F9000FBE76FF00800F8E72DE9F04300253B4B05
:103FA000CE1C1A6822F001021A60394A5E6002F1E2
:103FB0001804DC601C68B2F830C044F001041C60D6
:103FC000B2F832804C1E4FFA84FEA2F800C0E4B270
:103FD00002F1020940FA04F7FF074CBF4746674663
:103FE0000EF1FF3E48BF01354FFA8EFE48BF6DB25D
:103FF000BEF1000F09F1020904F1FF3429F8027C37
:10400000E8DA002015F0010F4FF0010418BFC44694
:10401000A9F802001F48A9F800C0848200F5FE300C
:10402000046B303024F0010404604660C260046810
:1040300044F00104046030380468A705FCD54FF44F
:1040400000744460144C154825462668B60401D413
:104050000138FAD14FF400546C601C6824F001045C
:104060001C600A245C600E4CDC601C6844F0010497
:104070001C6048B102EB4101888B938E984294BF3B
:1040800000200120BDE8F0830120FBE7440002404E
:104090005A3D00200004004000000240FFFF0F00D6
:1040A000743D0020003818BF01204042704710B511
:1040B000044660BB042217481146FEF7D5FA214694
:1040C0001548FCF78DFA1548FCF703FE214602203F
:1040D000FCF7F4FB1248FCF7B9F821460120FCF785
:1040E000D5FB1048FCF7F5FD21460420FCF7E6FB64
:1040F0000D48FCF7ABF80D48FCF7A8F80120214665
:10410000FCF7C4FB20460A4B83F8364010BD4FF045
:10411000FF30FBE7000C014000081A0000040040DB
:104120003000024000080040440002400800024005
:104130005A3D00202DE9F04F88461746994693B026
:10414000002840F09B804F4C94F83660002E65D1DB
:1041500001252946284684F83650FCF797FB294666
:104160000220FCF7ABFB4848FCF770F807A8FCF707
:1041700003F9464B4FF4807B07938023CDE90C3B3A
:104180004FF480634FF0100ACDE90E364FF48053A0
:104190003D4807A9CDE91036CDE909A60B96FCF7F5
:1041A000CDF829463848FCF7F4F86846FCF7C7FF15
:1041B00069463748CDE900668DF80860FCF76EFE69
:1041C00003A8FCF7C5FF334B31480393022303A92F
:1041D000ADF81430ADF81260FCF7AAFE08212C48A7
:1041E000FDF7CFF829462A48FDF79BF82A4659469D
:1041F0002748FCF7F1FF29462548FCF7C4FF29466C
:104200002348FCF7CCFF29462348FCF7E9F923486B
:104210000F220421C0F810A0FEF726FA208F60B903
:104220004825B5FBF8F5A8B208FB05F5C5F148052A
:10423000B5EB580FA8BF0130C001474300FB09F0A0
:10424000C7F3CF13790648BF013323864206C0F374
:10425000CF1348BF01336386628E238E0C4913440B
:104260009AB2C3F3CC0313449BB28B850123002085
:10427000DA408B82A28613B0BDE8F08F4FF0FF309A
:10428000F9E700BF5A3D00203000024034040040EE
:10429000000400406000010000081A00000C01400A
:1042A00008B540B90321FFF777FE002814BF6FF06F
:1042B0000500002008BD4FF0FF30FBE72DE9F34774
:1042C000884616461F46044600284BD122B96FF097
:1042D000050002B0BDE8F0870029F8D0A64201D859
:1042E0000020F6E7A6EB0409B9F1FF0F4FF0030138
:1042F0004FF00200CCBF4FF0FF095FFA89F9019738
:10430000FFF74AFE0028E2D108214846FFF744FEA5
:104310000028DCD1019D0821C5F30740FFF73CFED2
:104320000028D4D10821C5F30720FFF735FE002867
:10433000CDD1E8B20821FFF72FFE05460028C6D1EF
:1043400008EB040AEBB2994503D84C444F44A4B29D
:10435000C4E708211AF8010BFFF71EFE01350028FB
:10436000F0D0B4E74FF0FF30B3E72DE9F04F87B05E
:104370001746984604460291002840F0B68022B9BC
:104380006FF0050007B0BDE8F08F029B002BF7D05F
:10439000DFF87491A74201D80020F3E73D1BFF2D01
:1043A0004FF003014FF00100CCBFFF25EDB2CDF877
:1043B0001480FFF7F1FD0028E2D108212846FFF71D
:1043C000EBFD0028DCD1059E0821C6F30740FFF76E
:1043D000E3FD0028D4D10821C6F30720FFF7DCFD58
:1043E0000028CDD10821F0B2FFF7D6FD0028C7D1B3
:1043F0003F49404E4B8EB1F834B00393029B00907E
:104400001A193D4B9DF800C0654503D82C44A844BB
:10441000A4B2BFE7DFF8F4C0D9F800E01EF4005FF3
:1044200002D1BCF1010CF7D14FF400504FF0000E57
:10443000C9F8040082F800E0BCF1000FA0D0B1F888
:104440001AC0DC459CD24FF0070C2C480190019813
:1044500030F802EBF345019008D9012092F800E012
:1044600000FA0CFA4EEA0A0E82F800E0BCF1010CE8
:10447000EDD2D6F800C022482CF0010CC6F800C0DE
:104480004FF00B0CC6F804C0F060D6F800C00398DB
:104490004CF0010CC6F800C04FF0000CA1F802C0AF
:1044A0004FF0010C08801748A0F814C0D3F800C0E2
:1044B0002CF0010CC3F800C04FF0020CC3F804C08C
:1044C000D960D3F800C04CF0010CC3F800C0D9F893
:1044D00000C01CF4007FFAD04FF4007C0098C9F8AB
:1044E00004C00130009001328CE74FF0FF3049E703
:1044F0005A3D00204400024030000240763D00203A
:10450000723D00200004004000000240FFFF0F0049
:1045100030B500284BD14823B3FBF1F302259AB202
:104520004B43C3F14803B3EB510F2449C8BF0132D9
:104530000B68D20123F001030B60214B4D6003F1A6
:104540001800C8600868541C40F0010008601D494C
:10455000A4B2888D8C8501248C821A8000225A8016
:10456000194A8C82116880B221F0010111605560F6
:10457000D3601168303A2143116311688905FCD575
:104580004FF4007151601149114A0C460D68AD0499
:1045900001D4013AFAD14FF400516160094988858C
:1045A0000120888232B100205A8B1A8730BD4FF02B
:1045B000FF30FBE76FF00500F8E700BF4400024062
:1045C0005A3D00200004004030000240000002403C
:1045D000FFFF0F002DE9F04704468EB0002840F0A1
:1045E000D08001214FF080094FF480684FF40055CE
:1045F0004FF4807A644F654E38870846FCF746F9D9
:1046000001210420FCF75AF93046FBF71FFE03A8EE
:10461000FBF7B2FE5E4B304603A90393CDE90C5481
:10462000CDE90544CDE90A840794CDE9089AFBF762
:1046300085FE01213046FBF7ACFE5648FBF706FE2F
:1046400003A8FBF799FE544B524803A90393CDE905
:104650000B45CDE90544CDE907490D94CDE909A8FD
:10466000FBF76CFE01214B48FBF793FE6846FCF715
:1046700079FD0425022369464848CDE90053ADF889
:104680000840FCF7DAFF50214448FCF7FFFD2946BB
:104690004248FCF797FF49464048FCF79EFF01223D
:1046A00041463E48FCF798FD01224FF400713B481B
:1046B000FCF792FD012221463848FCF7DCFD012180
:1046C0003648FCF760FD3368183723F00103336088
:1046D0000A237360F7603368314C43F001033360A1
:1046E00040232046636103220621FDF7BDFF2D4BC9
:1046F0004FF47A70D3F85062B04738220621284828
:10470000FDF7B2FF4FF4FA70B047402303220621B1
:1047100023486361FDF7A8FF013D4FF4FA70B047ED
:1047200015F0FF05E9D104241D4D382206211C484F
:10473000FDF79AFFFA20B0474023032206211848CC
:104740006B61FDF791FF013CFA20B04714F0FF04C4
:10475000EBD1382206211248FDF786FF124A134B8F
:1047600011461068840401D4013BFAD1002B4FF4A8
:1047700000520CBF6FF0050000204A600EB0BDE88B
:10478000F0874FF0FF30F9E75A3D00204400024027
:10479000380800400800024034080040000800408B
:1047A000000C014018D6000800000240FFFF0F0077
:1047B00038B5044640B9064B0120D3F8F450A84759
:1047C0001020A847204638BD4FF0FF30FBE700BF60
:1047D00080D8000838B5044640B9064B0120D3F80C
:1047E000F850A8471020A847204638BD4FF0FF30AA
:1047F000FBE700BF80D80008F0B50E46154685B02F
:1048000048BB164F0120D7F8FC4002A9A04720B1B1
:104810006FF00604204605B0F0BD69461020A047A1
:1048200004460028F4D1009A039B9A42F0D3DDE9B4
:1048300001239A42ECD8314645F00402D7F80871BA
:104840000120B8474FF47A7300992A46B1FBF3F17F
:104850001020B847DEE74FF0FF34DBE780D80008D0
:10486000F0B5059E10BB069DDFF84CC0114FED085A
:10487000A84201D10020F0BD1BB113F8014BACF8E8
:104880000C4089B111F8014BA4B2BC813C892406CB
:10489000FCD41EB1BCF80C4006F8014B12B1BC8927
:1048A00002F8014B0130E3E70C46EDE74FF0FF3033
:1048B000E1E700BF0038004000300140044B4FF4F6
:1048C00080621978034B09B15A6170471A617047C9
:1048D000943D0020000C01404FF400422DE9F041CE
:1048E0000C4BA0B11A614FF400570B4B0B4DD3F892
:1048F00050426888A0476888064E4000376180B201
:10490000A047234668887761BDE8F04118475A619F
:10491000E9E700BF000C014018D60008943D0020D4
:10492000003818BF01204042704710B50446A8B9AE
:1049300004220A210B48FDF797FE04220D210948A5
:10494000FDF792FE04220F210648FDF78DFE054873
:1049500004220E21FDF788FE204610BD4FF0FF30E7
:10496000FBE700BF000C0140F8B50D46044620BB34
:10497000134E144F3A70FFF7A1FF03220A2130466D
:10498000FDF772FE4FF40053032273610D21304690
:10499000FDF76AFE03220F213046FDF765FE0E216A
:1049A00030460422FDF760FE012D38BF0125FA21B3
:1049B000B1FBF5F520467D80F8BD4FF0FF30FBE7F9
:1049C000000C0140943D00202DE9F74F0D9D8946D4
:1049D000144698469DF84070002869D1364E4FF431
:1049E00080623178354B71B31A610120FFF774FF93
:1049F0004FF0010A013C611C27D14FF001099DF8DD
:104A00003040013C621C28D14FF001089DF838402D
:104A1000013C631C29D100234FF40058DFF8A0A00B
:104A2000264C019307F1FF39B9F1FF3F24D1FA1D5C
:104A3000D20801A90F98FDF7CCFCFFF73FFF00203B
:104A400003B0BDE8F08F5A61CFE70AFA04F000EA3C
:104A50000900FFF741FF013CCDE709FA04F000EA45
:104A60000800FFF739FF013CCCE708FA04F02840C2
:104A7000FFF732FF013CCCE7DAF850527088A847C4
:104A80007088C4F81080400080B2A847C4F8148031
:104A9000D4F808B07088A8471BF4804F05D00123D4
:104AA00003FA09F2019B1343019309F1FF39BBE7B4
:104AB0004FF0FF30C4E700BF943D0020000C0140E0
:104AC00018D60008F8B50D461446E8B9104B4FF457
:104AD000806219780F4B81B11A610E4E0E4FB36888
:104AE0005B0402D4013CA4B24CB9FFF7E7FE002CF2
:104AF00014BF00206FF00500F8BD5A61EDE72846AD
:104B0000D7F850329847EAE74FF0FF30F4E700BF9C
:104B1000943D0020000C014018D6000838B50B4C1D
:104B20002388B3F5E16F0DD2A2785AB9084D4FF43E
:104B30008071D5F88830012098470122082110465D
:104B4000AB6F9847A3780133A37038BD983D002020
:104B500080D80008084A82B093785BB1013BDBB291
:104B600093703BB9042208210120044B9B6F0193F1
:104B700002B0184702B07047983D002080D8000866
:104B800010B5034CA37803B910BDFFF7E3FFF9E7B5
:104B9000983D0020014B9878704700BF983D002059
:104BA00020B931B1044B1B880B8070474FF0FF30A8
:104BB00070470846704700BF983D0020F8B504468E
:104BC000002842D1224EB588374645B1012D11D07B
:104BD0000135ADB2B5F5804F35D2B58007E01D4B3C
:104BE0000821D3F84C319847B3880133B3800024AF
:104BF0002046F8BD174D0821D5F850319847044696
:104C00000028F4D10821D5F85431984741F6C8134B
:104C10005843C0F30F30B0F5E16F93BF4FF400423B
:104C200022464FF400411146D5F8883030802046A6
:104C300098473388B3F5E16F01D2FFF7A1FFBB8836
:104C40000133BB80D4E7B080D2E74FF0FF34CFE729
:104C5000983D002080D8000870B5002835D11F4B42
:104C600040F6E44298781D46E8B9914298712FD1F8
:104C70000123AB71FFF752FF194B0A20D3F84C32D6
:104C80009847AB88012B1CD90A240026AE8000204F
:104C9000FFF794FFAB88012BF9D9601E10F0FF04D9
:104CA000F4D1204670BD914203D19B79002BE3D112
:104CB000DEE779B99B79002BDED0A971FFF760FFA1
:104CC000DAE70020FFF77AFFDBE74FF0FF30E9E794
:104CD0000029D1D06FF00500E4E700BF983D002027
:104CE00018D60008F8B500240A4E0B4D0B4FB368D8
:104CF000DB0601D50020F8BDD7F850322888984748
:104D00002B881C446B88A4B2002BF0D0A342EED8B1
:104D10000220F0E7000C0140A03D002018D600085A
:104D2000F8B500240A4E0B4D0B4FB3685B0401D558
:104D30000020F8BDD7F85032288898472B881C44AB
:104D40006B88A4B2002BF0D0A342EED80220F0E78B
:104D5000000C0140A03D002018D600082DE9F843C2
:104D60004FF480434FF01008204D214C2B61214B14
:104D7000A088D3F85072B847C5F81080FFF7B2FF8B
:104D8000064618B102263046BDE8F883FFF7C8FF93
:104D900040BBA088154D400080B2B8474FF4804317
:104DA000A0886B61400080B2B84710236B61EAE7CE
:104DB000B847A088C5F81480400080B2B847C5F84D
:104DC0001080FFF78FFF0028DCD109F1FF3919F0BF
:104DD000FF09D7D0AB68A0885B044FEA400080B2DF
:104DE000E6D5D6E74FF00B09F4E700BF000C014011
:104DF000A03D002018D600082DE9F0414FF0100822
:104E00004FF480470D4C0E4B0E4ED3F85052B088E5
:104E1000C4F81480A847B0886761A847C4F8108018
:104E2000FFF760FF38B9B088400080B2A84727611B
:104E3000FFF776FF00B10220BDE8F081000C0140D1
:104E400018D60008A03D00202DE9F047DFF8A8A003
:104E500006464FF008095746254BD3F85042BAF89A
:104E60000400A04716F0800F4FF48042214B07D07A
:104E70001A61FFF755FF20B102263046BDE8F087E2
:104E80005A614FF010081B4DB888A0477600C5F84E
:104E90001080F6B2FFF726FF0028EDD1B88809F19F
:104EA000FF39400080B2A04719F0FF09C5F814800F
:104EB000D5D1B888A0474FF48043B8882B61A0476C
:104EC000C5F81080FFF70EFF06460028D4D1B88839
:104ED000400080B2A047AB68F88813F4804FC5F853
:104EE000148002D0A0470126C7E7A047C5E700BF4E
:104EF00018D60008000C0140A03D002030B5850800
:104F0000074C08D0A580012938BF0121002061800D
:104F10002280E38030BD0028F4D00120A080F2E799
:104F2000A03D00202DE9F0411F460023069D884644
:104F30002B80164600F0FE04FFF710FF28B1FFF7A4
:104F40005BFF03242046BDE8F0812046FFF77CFF8D
:104F50000028F4D12B88B34210D218F80300FFF7D1
:104F600073FF0228044602D1FFF746FFEAE72888CC
:104F7000012C00F1010080B22880EBD1012F01D17A
:104F8000FFF73AFF2C88B4422CBF00240124D9E754
:104F90002DE9F04F85B003939DF83830DDF83C8063
:104FA00002930023A8F800301746019140F0010455
:104FB000FFF7D4FE00287DD12046FFF745FF0028EB
:104FC00078D13E4C3E4DB8F800309F420BD8039B41
:104FD000012B01D1FFF710FFB8F80000B8422CBF39
:104FE0000020012047E0019A02EB030B029A002AFD
:104FF00044D007F1FF3AAAEB0301D1F1000A4AEBD2
:10500000010A0021019A4FF00809D1544FF480435E
:1050100023612C4BD3F85062A888400080B2B0477F
:1050200010232361FFF75EFE10BBA88809F1FF394A
:10503000400080B2B0479BF800305B00DBB28BF8D9
:105040000030A1684A0444BF43F001038BF80030EC
:10505000102319F0FF096361DED1A888B0474FF42F
:105060008043BAF1000F0CD02361FFF759FE48B11D
:10507000FFF7C2FE022005B0BDE8F08FDDF808A002
:10508000BFE763614FF01009A888B047C4F81090DB
:10509000FFF728FE0028EBD1A888400080B2B04777
:1050A000E888C4F81490B047B8F800300133A8F885
:1050B000003088E7FFF7A0FE0320DCE7000C01408A
:1050C000A03D002018D60008102208B5074B1A6131
:1050D0004FF480421A61FFF705FE28B9FFF720FE62
:1050E000003818BF012008BD0120FCE7000C01407A
:1050F000FFF7EABF10B5044658B907220421064855
:10510000FDF7B2FA044807220E21FDF7ADFA20465A
:1051100010BD4FF0FF30FBE7000C014010B590B917
:10512000FFF7D2FF04220028114608480CBF0024D4
:105130006FF00504FDF798FA04220E210348FDF7ED
:1051400093FA204610BD4FF0FF34FAE7000C0140FF
:1051500038B505464FF47A7408461946B4FBF0F0AA
:1051600055B913460122FFF7C9FE10B9FFF7ACFF8E
:1051700008B16FF0050038BD4FF0FF30FBE71FB5F9
:105180000C4611461A46A0B90DF10E0301939DF885
:105190001C30E0B200939DF81830003B18BF01238B
:1051A000FFF7F6FE00280CBF00206FF0050004B0EA
:1051B00010BD4FF0FF30FAE71FB50C4611461A46F6
:1051C00088B90DF10E0300939DF81830E0B2003B52
:1051D00018BF0123FFF7A6FE00280CBF00206FF0C8
:1051E000050004B010BD4FF0FF30FAE738B54FF4BA
:1051F0000055094C38220B212046FDF735FA0322D1
:105200000D2120466561FDF72FFA044B0120D3F8EC
:105210004C329847256138BD000C014018D6000873
:1052200010B5064C382220460B21FDF71DFA20460A
:10523000BDE8104004220D21FDF716BA000C014014
:105240002DE9F0474FF400584FF40066264C274BE9
:105250008146D3F850520020C4F81480A84700209B
:10526000C4F81080A84703220B2120466661FDF791
:10527000FBF90020C4F81480A8470020C4F810806F
:10528000A84726610020C4F81480A8470020C4F86D
:105290001080A84738220B212046FDF7E5F90826A3
:1052A0000027C2460020C4F814A0A8470020C4F874
:1052B0001080A847A3687F081B0548BF67F07F07D9
:1052C00006F1FF3648BFFFB216F0FF06EAD189F8B3
:1052D00000704FF4005730466761A84730462B46B0
:1052E0002761BDE8F0471847000C014018D60008B8
:1052F0002DE9F0474FF40054214D224B8046D3F85E
:10530000506200206C61B04700202C61B0474FF420
:10531000006303220B212B612846FDF7A5F900202D
:105320006C61B04700202C61B04700206C61B04731
:1053300000202C61B0470827A1464FF4006318F005
:10534000010F14BF2B616B610020C5F81490B047AA
:10535000013F00202C61B04717F0FF074FEA5808C3
:10536000EBD138220B210648FDF77EF938466C61F7
:10537000B047384633462C61BDE8F047184700BFB8
:10538000000C014018D600082DE9F0474FF40056F4
:10539000334C344B0746D3F8505200206661A8477F
:1053A00000202661A8474FF4006303220B216361AC
:1053B0002046FDF759F900206661A84700202661C4
:1053C000A84700206661A84700202661A847002062
:1053D0006661A84700202661A84700206661A847AB
:1053E00000202661A84738220B212046FDF73CF912
:1053F000B0460020C4F81480A84700202661A847C2
:105400000020A847A3681A05F3D54FF400590824D3
:105410000026CA46DFF848800020C8F814A0A84734
:105420000020C8F81090A847D8F8083076081B0567
:1054300048BF66F07F0604F1FF3448BFF6B214F0AF
:10544000FF04E9D13E704FF400562046C8F81460BE
:10545000A8472046C8F81060A8472046BDE8F08756
:10546000000C014018D600082DE9F8434FF400560F
:105470004FF400672D4C2E4B8046D3F8505200203D
:105480006661A84700202661A84703220B21204619
:105490002761FDF7E9F800206661A8470020266132
:1054A000A847676100206661A84700202661A847D9
:1054B00000206661A84700202661A8470020666199
:1054C000A84700202661A8470827B1464FF400638B
:1054D00018F0010F14BF236163610020C4F8149019
:1054E000A847013F00202661A84717F0FF074FEAB1
:1054F0005808EBD14FF4005638220B210B48FDF72A
:10550000B3F83746094C00206761A84700202661A0
:10551000A847A3681B05F6D566610020A847266149
:105520000020A8470020BDE8F88300BF000C014020
:1055300018D6000810B5044618B9FFF757FE2046E4
:1055400010BD4FF0FF30FBE710B5044618B9FFF768
:1055500067FE204610BD4FF0FF30FBE710B5044654
:1055600008461CB9FFF7C4FE204610BD4FF0FF30BF
:10557000FBE710B5044608461CB9FFF761FE20465C
:1055800010BD4FF0FF30FBE708B540B90846FFF704
:10559000FBFE002814BF6FF00500002008BD4FF08F
:1055A000FF30FBE708B540B90878FFF75DFF00283A
:1055B00014BF6FF00500002008BD4FF0FF30FBE77F
:1055C00070B54FF40063094C70B123614FF400567D
:1055D000074B2661D3F850520020A8472B4666613E
:1055E0000020BDE8704018476361EFE7000C014000
:1055F00018D60008F8B54FF40056074C074B266143
:10560000A768D3F850520020A84766610020A84739
:10561000C7F3C020F8BD00BF000C014018D6000839
:105620002DE9F0410646984629480D4614460B21BF
:1056300003229DF81870FDF717F80120FFF7C0FF4F
:105640003046FFF7BDFF4046FFF7BAFF082605F0DA
:105650008000013EFFF7B4FF6D0016F0FF06EDB2CB
:10566000F5D1B8F1000F25D028220B211848FCF7FE
:10567000FBFF34460A25FFF7BDFF6400E4B2013D9D
:10568000044315F0FF05E4B2F5D103220B211048C5
:10569000FCF7EAFF0125013DEDB23846FFF790FF28
:1056A000002DF8D128220B210948FCF7DDFF204608
:1056B000BDE8F081082504F08000013DFFF780FF80
:1056C000640015F0FF05E4B2F5D10325E3E700BF60
:1056D000000C014010B503220B210948FCF7C4FF60
:1056E00016240020013CFFF76BFF14F0FF04F8D1F3
:1056F0002822BDE810400B210148FCF7B5BF00BFD0
:10570000000C01402DE9FF470D4600287DD1424F96
:105710000DF10E01D7F8D83098470646002877D10A
:1057200025B9BDF80E30B3F5E16F71D83B4C0322BB
:105730000B212046FCF798FF012D33D1FFF7EEF93E
:10574000D7F84C824FF480672846C04703220A21CD
:1057500020462761FCF788FF2846C04767614FF461
:1057600000532E4C03220D2120466361FCF77CFF81
:10577000002350211A4600930120FFF751FFFFF745
:10578000A9FFFFF7A7FFFFF7A5FFFFF7A3FFFFF7AD
:10579000A1FF28220B212046FCF766FF304604B00B
:1057A000BDE8F087002DDAD1DFF874A028220B21A4
:1057B0002046FCF759FF04220821DAF878900120EE
:1057C000C847D7F84C820120C0472A46DAF888300B
:1057D0004FF4807101209847012208211046C847E4
:1057E0000520C0474FF47A75A3681B0502D5013D1B
:1057F000ADB22DB903220B210848FCF735FFAEE707
:10580000D7F850320A209847EEE74FF0FF36C5E749
:105810006FF00506C2E700BF18D60008000C014073
:1058200080D8000870B50D46044638BB012916D152
:105830004FF48063134E08463361134BD3F84C3258
:10584000984738220A213046FCF70EFF04220D212A
:105850003046FCF709FFFFF77DF920460DE00029EF
:10586000FBD10A4B042208219B6F01209847054871
:1058700004220D21FCF7F8FE284670BD4FF0FF30E2
:10588000FBE700BF000C014018D6000880D80008D4
:1058900070B5002839D128220B211D48FCF7E4FE01
:1058A0006424FFF7A7FE1A4D1A4EAB681A0518D5E7
:1058B00042F21074164D174EAB681B051CD44FF402
:1058C000006303220B2112486B61FCF7CDFE2824F4
:1058D0000020013CFFF774FE14F0FF04F8D12046CD
:1058E00009E0013C0A20D6F85032A4B29847002CB7
:1058F000DBD16FF0050070BD013C0A20D6F85032B4
:10590000A4B29847002CD7D1F3E74FF0FF30F2E76D
:10591000000C014018D6000838B50446A0B94FF471
:1059200080630B4D38226B610A212846FCF79CFEF0
:1059300028220B212846FCF797FE284604220D2139
:10594000FCF792FE204638BD4FF0FF30FBE700BF6A
:10595000000C014008B9FFF7DFBF4FF0FF30704780
:10596000F7B5089D0C46064611461A46D8B914F0FC
:10597000080704D0FFF7AEFE304603B0F0BD04F0D8
:10598000040304F0010014F00204009306D0012384
:10599000FFF746FE55B128703846EEE72346FFF77D
:1059A0003FFE2046E9E74FF0FF30E6E72846E4E710
:1059B0002DE9F04781464FF000084FF40055DFF81D
:1059C00054A0134FCC00444501D1BDE8F087D7F86F
:1059D00050620020CAF81450B0470123CAF8105092
:1059E000DAF808204FEAD80108F0070012F4006F37
:1059F00003FA00F319F801205BB214BF134322EA43
:105A00000303002009F80130B04708F10108DAE784
:105A100018D60008000C01402DE9F84303220D467A
:105A200007460B211548FCF71FFE0024134EDFF834
:105A30005090ED00A54206D1BDE8F84338220B2175
:105A40000E48FCF711BE4FF400537361E308FB5C92
:105A500004F00702134113F0010F4FF40063D9F86B
:105A6000508214BF336173610020C0474FF400536C
:105A700000203361C0470134DCE700BF000C014067
:105A800018D6000838B50446D0B94FF480630E4DDF
:105A900003220A2128466B61FCF7E6FD4FF4005310
:105AA00003220D2128462B61FCF7DEFD4FF4006335
:105AB000284603220B212B61FCF7D6FD204638BD7A
:105AC0004FF0FF30FBE700BF000C014010B504466B
:105AD00090B9FFF73FF838220A210948FCF7C4FDC6
